{
  "address": "0x5FbDB2315678afecb367f032d93F642f64180aa3",
  "abi": [
    {
      "inputs": [],
      "stateMutability": "nonpayable",
      "type": "constructor"
    },
    {
      "anonymous": false,
      "inputs": [
        {
          "indexed": true,
          "internalType": "address",
          "name": "player",
          "type": "address"
        },
        {
          "indexed": false,
          "internalType": "uint256",
          "name": "bet",
          "type": "uint256"
        },
        {
          "indexed": false,
          "internalType": "uint256",
          "name": "choice",
          "type": "uint256"
        },
        {
          "indexed": false,
          "internalType": "bytes32",
          "name": "seed",
          "type": "bytes32"
        }
      ],
      "name": "GameCreated",
      "type": "event"
    },
    {
      "anonymous": false,
      "inputs": [
        {
          "indexed": true,
          "internalType": "address",
          "name": "player",
          "type": "address"
        },
        {
          "indexed": false,
          "internalType": "uint256",
          "name": "bet",
          "type": "uint256"
        },
        {
          "indexed": false,
          "internalType": "uint256",
          "name": "prize",
          "type": "uint256"
        },
        {
          "indexed": false,
          "internalType": "uint256",
          "name": "choice",
          "type": "uint256"
        },
        {
          "indexed": false,
          "internalType": "uint256",
          "name": "result",
          "type": "uint256"
        },
        {
          "indexed": true,
          "internalType": "bytes32",
          "name": "seed",
          "type": "bytes32"
        },
        {
          "indexed": false,
          "internalType": "enum CoinFlip.GameState",
          "name": "state",
          "type": "uint8"
        }
      ],
      "name": "GamePlayed",
      "type": "event"
    },
    {
      "anonymous": false,
      "inputs": [
        {
          "indexed": true,
          "internalType": "address",
          "name": "previousOwner",
          "type": "address"
        },
        {
          "indexed": true,
          "internalType": "address",
          "name": "newOwner",
          "type": "address"
        }
      ],
      "name": "OwnershipTransferred",
      "type": "event"
    },
    {
      "stateMutability": "nonpayable",
      "type": "fallback"
    },
    {
      "inputs": [],
      "name": "WIN_COEFFICIENT",
      "outputs": [
        {
          "internalType": "uint256",
          "name": "",
          "type": "uint256"
        }
      ],
      "stateMutability": "view",
      "type": "function"
    },
    {
      "inputs": [
        {
          "internalType": "bytes32",
          "name": "_seed",
          "type": "bytes32"
        },
        {
          "internalType": "uint8",
          "name": "_v",
          "type": "uint8"
        },
        {
          "internalType": "bytes32",
          "name": "_r",
          "type": "bytes32"
        },
        {
          "internalType": "bytes32",
          "name": "_s",
          "type": "bytes32"
        }
      ],
      "name": "confirm",
      "outputs": [],
      "stateMutability": "nonpayable",
      "type": "function"
    },
    {
      "inputs": [],
      "name": "croupier",
      "outputs": [
        {
          "internalType": "address",
          "name": "",
          "type": "address"
        }
      ],
      "stateMutability": "view",
      "type": "function"
    },
    {
      "inputs": [
        {
          "internalType": "bytes32",
          "name": "",
          "type": "bytes32"
        }
      ],
      "name": "games",
      "outputs": [
        {
          "internalType": "uint256",
          "name": "id",
          "type": "uint256"
        },
        {
          "internalType": "address payable",
          "name": "player",
          "type": "address"
        },
        {
          "internalType": "uint256",
          "name": "bet",
          "type": "uint256"
        },
        {
          "internalType": "uint256",
          "name": "prize",
          "type": "uint256"
        },
        {
          "internalType": "uint256",
          "name": "choice",
          "type": "uint256"
        },
        {
          "internalType": "uint256",
          "name": "result",
          "type": "uint256"
        },
        {
          "internalType": "enum CoinFlip.GameState",
          "name": "state",
          "type": "uint8"
        }
      ],
      "stateMutability": "view",
      "type": "function"
    },
    {
      "inputs": [],
      "name": "houseProfitEther",
      "outputs": [
        {
          "internalType": "int256",
          "name": "",
          "type": "int256"
        }
      ],
      "stateMutability": "view",
      "type": "function"
    },
    {
      "inputs": [
        {
          "internalType": "uint256",
          "name": "",
          "type": "uint256"
        }
      ],
      "name": "listGames",
      "outputs": [
        {
          "internalType": "bytes32",
          "name": "",
          "type": "bytes32"
        }
      ],
      "stateMutability": "view",
      "type": "function"
    },
    {
      "inputs": [],
      "name": "maxEtherBet",
      "outputs": [
        {
          "internalType": "uint256",
          "name": "",
          "type": "uint256"
        }
      ],
      "stateMutability": "view",
      "type": "function"
    },
    {
      "inputs": [],
      "name": "minEtherBet",
      "outputs": [
        {
          "internalType": "uint256",
          "name": "",
          "type": "uint256"
        }
      ],
      "stateMutability": "view",
      "type": "function"
    },
    {
      "inputs": [],
      "name": "owner",
      "outputs": [
        {
          "internalType": "address",
          "name": "",
          "type": "address"
        }
      ],
      "stateMutability": "view",
      "type": "function"
    },
    {
      "inputs": [
        {
          "internalType": "uint256",
          "name": "_choice",
          "type": "uint256"
        },
        {
          "internalType": "bytes32",
          "name": "_seed",
          "type": "bytes32"
        }
      ],
      "name": "play",
      "outputs": [],
      "stateMutability": "payable",
      "type": "function"
    },
    {
      "inputs": [],
      "name": "profitTaker",
      "outputs": [
        {
          "internalType": "address",
          "name": "",
          "type": "address"
        }
      ],
      "stateMutability": "view",
      "type": "function"
    },
    {
      "inputs": [],
      "name": "renounceOwnership",
      "outputs": [],
      "stateMutability": "nonpayable",
      "type": "function"
    },
    {
      "inputs": [
        {
          "internalType": "uint256",
          "name": "_min",
          "type": "uint256"
        },
        {
          "internalType": "uint256",
          "name": "_max",
          "type": "uint256"
        }
      ],
      "name": "setBetRange",
      "outputs": [],
      "stateMutability": "nonpayable",
      "type": "function"
    },
    {
      "inputs": [
        {
          "internalType": "address",
          "name": "_croupier",
          "type": "address"
        }
      ],
      "name": "setCroupier",
      "outputs": [],
      "stateMutability": "nonpayable",
      "type": "function"
    },
    {
      "inputs": [
        {
          "internalType": "address",
          "name": "_profitTaker",
          "type": "address"
        }
      ],
      "name": "setProfitTaker",
      "outputs": [],
      "stateMutability": "nonpayable",
      "type": "function"
    },
    {
      "inputs": [
        {
          "internalType": "uint256",
          "name": "amount",
          "type": "uint256"
        }
      ],
      "name": "setWinCoefficient",
      "outputs": [
        {
          "internalType": "uint256",
          "name": "",
          "type": "uint256"
        }
      ],
      "stateMutability": "nonpayable",
      "type": "function"
    },
    {
      "inputs": [],
      "name": "takeProfit",
      "outputs": [],
      "stateMutability": "nonpayable",
      "type": "function"
    },
    {
      "inputs": [],
      "name": "totalGamesCount",
      "outputs": [
        {
          "internalType": "uint256",
          "name": "",
          "type": "uint256"
        }
      ],
      "stateMutability": "view",
      "type": "function"
    },
    {
      "inputs": [
        {
          "internalType": "address",
          "name": "newOwner",
          "type": "address"
        }
      ],
      "name": "transferOwnership",
      "outputs": [],
      "stateMutability": "nonpayable",
      "type": "function"
    },
    {
      "inputs": [],
      "name": "withdraw",
      "outputs": [],
      "stateMutability": "nonpayable",
      "type": "function"
    },
    {
      "stateMutability": "payable",
      "type": "receive"
    }
  ],
  "transactionHash": "0x2b6d2d1cf484e9de21bdce6eb716333601fe81da3d2b9ad8a130d7851e9c1014",
  "args": [],
  "solcInputHash": "888ecdc6477e54e1134c5abce06e227c",
  "bytecode": "0x608060405260c360025567016345785d8a0000600355678ac7230489e8000060045534801561002d57600080fd5b5061004a61003f6100d160201b60201c565b6100d960201b60201c565b33600660006101000a81548173ffffffffffffffffffffffffffffffffffffffff021916908373ffffffffffffffffffffffffffffffffffffffff16021790555033600760006101000a81548173ffffffffffffffffffffffffffffffffffffffff021916908373ffffffffffffffffffffffffffffffffffffffff16021790555061019d565b600033905090565b60008060009054906101000a900473ffffffffffffffffffffffffffffffffffffffff169050816000806101000a81548173ffffffffffffffffffffffffffffffffffffffff021916908373ffffffffffffffffffffffffffffffffffffffff1602179055508173ffffffffffffffffffffffffffffffffffffffff168173ffffffffffffffffffffffffffffffffffffffff167f8be0079c531659141344cd1fd0a4f28419497f9722a3daafe3b4186f6b6457e060405160405180910390a35050565b6121cf80620001ad6000396000f3fe6080604052600436106101235760003560e01c80638da5cb5b116100a0578063f2fde38b11610064578063f2fde38b14610391578063f579f882146103ba578063f593a387146103fd578063f8bb201c14610428578063f957eff2146104515761012a565b80638da5cb5b146102bb57806390e50774146102e6578063abae505014610323578063b00606a51461034c578063bf4bd002146103755761012a565b80636b5c5f39116100e75780636b5c5f391461020e57806370c1057814610239578063715018a61461025057806372215373146102675780638bc4aab2146102905761012a565b806322728b11146101395780633ccfd60b146101645780635b49637e1461017b5780635c6c0939146101a657806365fe09d7146101d15761012a565b3661012a57005b34801561013657600080fd5b50005b34801561014557600080fd5b5061014e61047c565b60405161015b91906119d2565b60405180910390f35b34801561017057600080fd5b50610179610482565b005b34801561018757600080fd5b506101906105ba565b60405161019d91906119d2565b60405180910390f35b3480156101b257600080fd5b506101bb6105c0565b6040516101c891906117fc565b60405180910390f35b3480156101dd57600080fd5b506101f860048036038101906101f39190611518565b6105e6565b6040516102059190611817565b60405180910390f35b34801561021a57600080fd5b5061022361060a565b60405161023091906117fc565b60405180910390f35b34801561024557600080fd5b5061024e610630565b005b34801561025c57600080fd5b50610265610741565b005b34801561027357600080fd5b5061028e60048036038101906102899190611457565b6107c9565b005b34801561029c57600080fd5b506102a5610889565b6040516102b29190611877565b60405180910390f35b3480156102c757600080fd5b506102d061088f565b6040516102dd91906117fc565b60405180910390f35b3480156102f257600080fd5b5061030d60048036038101906103089190611518565b6108b8565b60405161031a91906119d2565b60405180910390f35b34801561032f57600080fd5b5061034a60048036038101906103459190611585565b610947565b005b34801561035857600080fd5b50610373600480360381019061036e91906114b1565b6109d5565b005b61038f600480360381019061038a9190611545565b610e22565b005b34801561039d57600080fd5b506103b860048036038101906103b39190611457565b611104565b005b3480156103c657600080fd5b506103e160048036038101906103dc9190611484565b6111fc565b6040516103f497969594939291906119ed565b60405180910390f35b34801561040957600080fd5b5061041261126b565b60405161041f91906119d2565b60405180910390f35b34801561043457600080fd5b5061044f600480360381019061044a9190611457565b611271565b005b34801561045d57600080fd5b50610466611331565b60405161047391906119d2565b60405180910390f35b60035481565b61048a611337565b73ffffffffffffffffffffffffffffffffffffffff166104a861088f565b73ffffffffffffffffffffffffffffffffffffffff16146104fe576040517f08c379a00000000000000000000000000000000000000000000000000000000081526004016104f590611932565b60405180910390fd5b600060055413156105695761051161088f565b73ffffffffffffffffffffffffffffffffffffffff166108fc600554476105389190611cc0565b9081150290604051600060405180830381858888f19350505050158015610563573d6000803e3d6000fd5b506105b8565b61057161088f565b73ffffffffffffffffffffffffffffffffffffffff166108fc479081150290604051600060405180830381858888f193505050501580156105b6573d6000803e3d6000fd5b505b565b60045481565b600760009054906101000a900473ffffffffffffffffffffffffffffffffffffffff1681565b600981815481106105f657600080fd5b906000526020600020016000915090505481565b600660009054906101000a900473ffffffffffffffffffffffffffffffffffffffff1681565b600760009054906101000a900473ffffffffffffffffffffffffffffffffffffffff1673ffffffffffffffffffffffffffffffffffffffff163373ffffffffffffffffffffffffffffffffffffffff16146106c0576040517f08c379a00000000000000000000000000000000000000000000000000000000081526004016106b7906119b2565b60405180910390fd5b6000600554131561073f57600760009054906101000a900473ffffffffffffffffffffffffffffffffffffffff1673ffffffffffffffffffffffffffffffffffffffff166108fc6005549081150290604051600060405180830381858888f19350505050158015610735573d6000803e3d6000fd5b5060006005819055505b565b610749611337565b73ffffffffffffffffffffffffffffffffffffffff1661076761088f565b73ffffffffffffffffffffffffffffffffffffffff16146107bd576040517f08c379a00000000000000000000000000000000000000000000000000000000081526004016107b490611932565b60405180910390fd5b6107c7600061133f565b565b6107d1611337565b73ffffffffffffffffffffffffffffffffffffffff166107ef61088f565b73ffffffffffffffffffffffffffffffffffffffff1614610845576040517f08c379a000000000000000000000000000000000000000000000000000000000815260040161083c90611932565b60405180910390fd5b80600760006101000a81548173ffffffffffffffffffffffffffffffffffffffff021916908373ffffffffffffffffffffffffffffffffffffffff16021790555050565b60055481565b60008060009054906101000a900473ffffffffffffffffffffffffffffffffffffffff16905090565b60006108c2611337565b73ffffffffffffffffffffffffffffffffffffffff166108e061088f565b73ffffffffffffffffffffffffffffffffffffffff1614610936576040517f08c379a000000000000000000000000000000000000000000000000000000000815260040161092d90611932565b60405180910390fd5b816002819055506002549050919050565b61094f611337565b73ffffffffffffffffffffffffffffffffffffffff1661096d61088f565b73ffffffffffffffffffffffffffffffffffffffff16146109c3576040517f08c379a00000000000000000000000000000000000000000000000000000000081526004016109ba90611932565b60405180910390fd5b81600381905550806004819055505050565b600660009054906101000a900473ffffffffffffffffffffffffffffffffffffffff1673ffffffffffffffffffffffffffffffffffffffff163373ffffffffffffffffffffffffffffffffffffffff1614610a65576040517f08c379a0000000000000000000000000000000000000000000000000000000008152600401610a5c90611952565b60405180910390fd5b600060086000868152602001908152602001600020905060006002811115610a9057610a8f611e9d565b5b8160060160009054906101000a900460ff166002811115610ab457610ab3611e9d565b5b14610af4576040517f08c379a0000000000000000000000000000000000000000000000000000000008152600401610aeb90611912565b60405180910390fd5b60006040518060400160405280601c81526020017f19457468657265756d205369676e6564204d6573736167653a0a333200000000815250905060008187604051602001610b439291906117d4565b604051602081830303815290604052805190602001209050600660009054906101000a900473ffffffffffffffffffffffffffffffffffffffff1673ffffffffffffffffffffffffffffffffffffffff1660018288888860405160008152602001604052604051610bb79493929190611832565b6020604051602081039080840390855afa158015610bd9573d6000803e3d6000fd5b5050506020604051035173ffffffffffffffffffffffffffffffffffffffff1614610c39576040517f08c379a0000000000000000000000000000000000000000000000000000000008152600401610c30906118d2565b60405180910390fd5b60028460001c610c499190611e0e565b8360050181905550826005015483600401541415610d455760646002548460020154610c759190611bd2565b610c7f9190611ba1565b836003018190555060018360060160006101000a81548160ff02191690836002811115610caf57610cae611e9d565b5b0217905550826003015460056000828254610cca9190611c2c565b925050819055508260010160009054906101000a900473ffffffffffffffffffffffffffffffffffffffff1673ffffffffffffffffffffffffffffffffffffffff166108fc84600301549081150290604051600060405180830381858888f19350505050158015610d3f573d6000803e3d6000fd5b50610d7d565b6000836003018190555060028360060160006101000a81548160ff02191690836002811115610d7757610d76611e9d565b5b02179055505b868360010160009054906101000a900473ffffffffffffffffffffffffffffffffffffffff1673ffffffffffffffffffffffffffffffffffffffff167f66a277eae08be005534c699a6a8bb8d6130423996a074a37936859d78dab29b985600201548660030154876004015488600501548960060160009054906101000a900460ff16604051610e11959493929190611a93565b60405180910390a350505050505050565b3460035411158015610e3657506004543411155b610e75576040517f08c379a0000000000000000000000000000000000000000000000000000000008152600401610e6c90611892565b60405180910390fd5b806000600860008381526020019081526020016000206000015414610ecf576040517f08c379a0000000000000000000000000000000000000000000000000000000008152600401610ec690611992565b60405180910390fd5b6000831480610ede5750600183145b610f1d576040517f08c379a0000000000000000000000000000000000000000000000000000000008152600401610f14906118f2565b60405180910390fd5b6000606460025434610f2f9190611bd2565b610f399190611ba1565b9050478110610f7d576040517f08c379a0000000000000000000000000000000000000000000000000000000008152600401610f7490611972565b60405180910390fd5b600060086000858152602001908152602001600020905060016000815480929190610fa790611dbb565b91905055506001548160000181905550338160010160006101000a81548173ffffffffffffffffffffffffffffffffffffffff021916908373ffffffffffffffffffffffffffffffffffffffff16021790555034816002018190555084816004018190555060008160060160006101000a81548160ff0219169083600281111561103457611033611e9d565b5b021790555080600201546005600082825461104f9190611b0d565b9250508190555060098490806001815401808255809150506001900390600052602060002001600090919091909150558060010160009054906101000a900473ffffffffffffffffffffffffffffffffffffffff1673ffffffffffffffffffffffffffffffffffffffff167f0b67fb309cd70de956ad131734cbf3dcf23c78aa040b81ad1f7974defdfa511c82600201548360040154876040516110f593929190611a5c565b60405180910390a25050505050565b61110c611337565b73ffffffffffffffffffffffffffffffffffffffff1661112a61088f565b73ffffffffffffffffffffffffffffffffffffffff1614611180576040517f08c379a000000000000000000000000000000000000000000000000000000000815260040161117790611932565b60405180910390fd5b600073ffffffffffffffffffffffffffffffffffffffff168173ffffffffffffffffffffffffffffffffffffffff1614156111f0576040517f08c379a00000000000000000000000000000000000000000000000000000000081526004016111e7906118b2565b60405180910390fd5b6111f98161133f565b50565b60086020528060005260406000206000915090508060000154908060010160009054906101000a900473ffffffffffffffffffffffffffffffffffffffff16908060020154908060030154908060040154908060050154908060060160009054906101000a900460ff16905087565b60015481565b611279611337565b73ffffffffffffffffffffffffffffffffffffffff1661129761088f565b73ffffffffffffffffffffffffffffffffffffffff16146112ed576040517f08c379a00000000000000000000000000000000000000000000000000000000081526004016112e490611932565b60405180910390fd5b80600660006101000a81548173ffffffffffffffffffffffffffffffffffffffff021916908373ffffffffffffffffffffffffffffffffffffffff16021790555050565b60025481565b600033905090565b60008060009054906101000a900473ffffffffffffffffffffffffffffffffffffffff169050816000806101000a81548173ffffffffffffffffffffffffffffffffffffffff021916908373ffffffffffffffffffffffffffffffffffffffff1602179055508173ffffffffffffffffffffffffffffffffffffffff168173ffffffffffffffffffffffffffffffffffffffff167f8be0079c531659141344cd1fd0a4f28419497f9722a3daafe3b4186f6b6457e060405160405180910390a35050565b6000813590506114128161213d565b92915050565b60008135905061142781612154565b92915050565b60008135905061143c8161216b565b92915050565b60008135905061145181612182565b92915050565b60006020828403121561146d5761146c611ecc565b5b600061147b84828501611403565b91505092915050565b60006020828403121561149a57611499611ecc565b5b60006114a884828501611418565b91505092915050565b600080600080608085870312156114cb576114ca611ecc565b5b60006114d987828801611418565b94505060206114ea87828801611442565b93505060406114fb87828801611418565b925050606061150c87828801611418565b91505092959194509250565b60006020828403121561152e5761152d611ecc565b5b600061153c8482850161142d565b91505092915050565b6000806040838503121561155c5761155b611ecc565b5b600061156a8582860161142d565b925050602061157b85828601611418565b9150509250929050565b6000806040838503121561159c5761159b611ecc565b5b60006115aa8582860161142d565b92505060206115bb8582860161142d565b9150509250929050565b6115ce81611d06565b82525050565b6115dd81611cf4565b82525050565b6115ec81611d18565b82525050565b6116036115fe82611d18565b611e04565b82525050565b600061161482611ae6565b61161e8185611af1565b935061162e818560208601611d88565b80840191505092915050565b61164381611d76565b82525050565b61165281611d35565b82525050565b6000611665602383611afc565b915061167082611ed1565b604082019050919050565b6000611688602683611afc565b915061169382611f20565b604082019050919050565b60006116ab601183611afc565b91506116b682611f6f565b602082019050919050565b60006116ce601783611afc565b91506116d982611f98565b602082019050919050565b60006116f1601383611afc565b91506116fc82611fc1565b602082019050919050565b6000611714602083611afc565b915061171f82611fea565b602082019050919050565b6000611737602883611afc565b915061174282612013565b604082019050919050565b600061175a602e83611afc565b915061176582612062565b604082019050919050565b600061177d601183611afc565b9150611788826120b1565b602082019050919050565b60006117a0602c83611afc565b91506117ab826120da565b604082019050919050565b6117bf81611d5f565b82525050565b6117ce81611d69565b82525050565b60006117e08285611609565b91506117ec82846115f2565b6020820191508190509392505050565b600060208201905061181160008301846115d4565b92915050565b600060208201905061182c60008301846115e3565b92915050565b600060808201905061184760008301876115e3565b61185460208301866117c5565b61186160408301856115e3565b61186e60608301846115e3565b95945050505050565b600060208201905061188c6000830184611649565b92915050565b600060208201905081810360008301526118ab81611658565b9050919050565b600060208201905081810360008301526118cb8161167b565b9050919050565b600060208201905081810360008301526118eb8161169e565b9050919050565b6000602082019050818103600083015261190b816116c1565b9050919050565b6000602082019050818103600083015261192b816116e4565b9050919050565b6000602082019050818103600083015261194b81611707565b9050919050565b6000602082019050818103600083015261196b8161172a565b9050919050565b6000602082019050818103600083015261198b8161174d565b9050919050565b600060208201905081810360008301526119ab81611770565b9050919050565b600060208201905081810360008301526119cb81611793565b9050919050565b60006020820190506119e760008301846117b6565b92915050565b600060e082019050611a02600083018a6117b6565b611a0f60208301896115c5565b611a1c60408301886117b6565b611a2960608301876117b6565b611a3660808301866117b6565b611a4360a08301856117b6565b611a5060c083018461163a565b98975050505050505050565b6000606082019050611a7160008301866117b6565b611a7e60208301856117b6565b611a8b60408301846115e3565b949350505050565b600060a082019050611aa860008301886117b6565b611ab560208301876117b6565b611ac260408301866117b6565b611acf60608301856117b6565b611adc608083018461163a565b9695505050505050565b600081519050919050565b600081905092915050565b600082825260208201905092915050565b6000611b1882611d35565b9150611b2383611d35565b9250817f7fffffffffffffffffffffffffffffffffffffffffffffffffffffffffffffff03831360008312151615611b5e57611b5d611e3f565b5b817f8000000000000000000000000000000000000000000000000000000000000000038312600083121615611b9657611b95611e3f565b5b828201905092915050565b6000611bac82611d5f565b9150611bb783611d5f565b925082611bc757611bc6611e6e565b5b828204905092915050565b6000611bdd82611d5f565b9150611be883611d5f565b9250817fffffffffffffffffffffffffffffffffffffffffffffffffffffffffffffffff0483118215151615611c2157611c20611e3f565b5b828202905092915050565b6000611c3782611d35565b9150611c4283611d35565b9250827f800000000000000000000000000000000000000000000000000000000000000001821260008412151615611c7d57611c7c611e3f565b5b827f7fffffffffffffffffffffffffffffffffffffffffffffffffffffffffffffff018213600084121615611cb557611cb4611e3f565b5b828203905092915050565b6000611ccb82611d5f565b9150611cd683611d5f565b925082821015611ce957611ce8611e3f565b5b828203905092915050565b6000611cff82611d3f565b9050919050565b6000611d1182611d3f565b9050919050565b6000819050919050565b6000819050611d3082612129565b919050565b6000819050919050565b600073ffffffffffffffffffffffffffffffffffffffff82169050919050565b6000819050919050565b600060ff82169050919050565b6000611d8182611d22565b9050919050565b60005b83811015611da6578082015181840152602081019050611d8b565b83811115611db5576000848401525b50505050565b6000611dc682611d5f565b91507fffffffffffffffffffffffffffffffffffffffffffffffffffffffffffffffff821415611df957611df8611e3f565b5b600182019050919050565b6000819050919050565b6000611e1982611d5f565b9150611e2483611d5f565b925082611e3457611e33611e6e565b5b828206905092915050565b7f4e487b7100000000000000000000000000000000000000000000000000000000600052601160045260246000fd5b7f4e487b7100000000000000000000000000000000000000000000000000000000600052601260045260246000fd5b7f4e487b7100000000000000000000000000000000000000000000000000000000600052602160045260246000fd5b600080fd5b7f52617465206973206e6f74206265747765656e206d696e20616e64206d61782060008201527f6265740000000000000000000000000000000000000000000000000000000000602082015250565b7f4f776e61626c653a206e6577206f776e657220697320746865207a65726f206160008201527f6464726573730000000000000000000000000000000000000000000000000000602082015250565b7f496e76616c6964207369676e6174757265000000000000000000000000000000600082015250565b7f43686f6963652073686f756c642062652030206f722031000000000000000000600082015250565b7f47616d6520616c726561647920706c6179656400000000000000000000000000600082015250565b7f4f776e61626c653a2063616c6c6572206973206e6f7420746865206f776e6572600082015250565b7f4f6e6c79207468652063726f75706965722063616e2072756e2074686973206660008201527f756e6374696f6e2e000000000000000000000000000000000000000000000000602082015250565b7f496e737566666963656e742066756e6473206f6e20636f6e747261637420746f60008201527f20636f7665722074686520626574000000000000000000000000000000000000602082015250565b7f5365656420616c72656164792075736564000000000000000000000000000000600082015250565b7f4f6e6c79207468652070726f6669742074616b65722063616e2072756e20746860008201527f69732066756e6374696f6e2e0000000000000000000000000000000000000000602082015250565b6003811061213a57612139611e9d565b5b50565b61214681611cf4565b811461215157600080fd5b50565b61215d81611d18565b811461216857600080fd5b50565b61217481611d5f565b811461217f57600080fd5b50565b61218b81611d69565b811461219657600080fd5b5056fea264697066735822122099d280d483397e40e3b5342227d19d0477d3728e28edd57f2d7cf976eda4483964736f6c63430008060033",
  "devdoc": {
    "kind": "dev",
    "methods": {
      "confirm(bytes32,uint8,bytes32,bytes32)": {
        "params": {
          "_seed": ": Uniqual value for each game"
        }
      },
      "owner()": {
        "details": "Returns the address of the current owner."
      },
      "play(uint256,bytes32)": {
        "params": {
          "_seed": ": Uniqual value for each game"
        }
      },
      "renounceOwnership()": {
        "details": "Leaves the contract without owner. It will not be possible to call `onlyOwner` functions anymore. Can only be called by the current owner. NOTE: Renouncing ownership will leave the contract without an owner, thereby removing any functionality that is only available to the owner."
      },
      "setBetRange(uint256,uint256)": {
        "params": {
          "_max": ": New maxEtherBet",
          "_min": ": New minEtherBet"
        }
      },
      "setCroupier(address)": {
        "params": {
          "_croupier": ": New croupier"
        }
      },
      "setProfitTaker(address)": {
        "params": {
          "_profitTaker": ": New profitTaker"
        }
      },
      "setWinCoefficient(uint256)": {
        "params": {
          "amount": ": New WIN_COEFFICIENT"
        }
      },
      "transferOwnership(address)": {
        "details": "Transfers ownership of the contract to a new account (`newOwner`). Can only be called by the current owner."
      }
    },
    "version": 1
  },
  "userdoc": {
    "kind": "user",
    "methods": {
      "WIN_COEFFICIENT()": {
        "notice": "Coefficient for win. x / 100"
      },
      "confirm(bytes32,uint8,bytes32,bytes32)": {
        "notice": "Confirm the game, with seed"
      },
      "croupier()": {
        "notice": "Croupier"
      },
      "games(bytes32)": {
        "notice": "Info of each game"
      },
      "houseProfitEther()": {
        "notice": "Profit from bets"
      },
      "listGames(uint256)": {
        "notice": "Games seeds"
      },
      "maxEtherBet()": {
        "notice": "Maximal amount for bet"
      },
      "minEtherBet()": {
        "notice": "Minimal amount for bet"
      },
      "play(uint256,bytes32)": {
        "notice": "Add new game"
      },
      "profitTaker()": {
        "notice": "Person how will receive houseProfitEther"
      },
      "setBetRange(uint256,uint256)": {
        "notice": "Set new minEtherBet and maxEtherBet"
      },
      "setCroupier(address)": {
        "notice": "Set new croupier"
      },
      "setProfitTaker(address)": {
        "notice": "Set new profitTaker"
      },
      "setWinCoefficient(uint256)": {
        "notice": "Set new WIN_COEFFICIENT"
      },
      "takeProfit()": {
        "notice": "sends houseProfitEther to profitTaker"
      },
      "totalGamesCount()": {
        "notice": "Number of all games"
      },
      "withdraw()": {
        "notice": "sends contract's excessive balance to owner"
      }
    },
    "version": 1
  },
  "storageLayout": {
    "storage": [
      {
        "astId": 7,
        "contract": "contracts/CoinFlip.sol:CoinFlip",
        "label": "_owner",
        "offset": 0,
        "slot": "0",
        "type": "t_address"
      },
      {
        "astId": 153,
        "contract": "contracts/CoinFlip.sol:CoinFlip",
        "label": "totalGamesCount",
        "offset": 0,
        "slot": "1",
        "type": "t_uint256"
      },
      {
        "astId": 157,
        "contract": "contracts/CoinFlip.sol:CoinFlip",
        "label": "WIN_COEFFICIENT",
        "offset": 0,
        "slot": "2",
        "type": "t_uint256"
      },
      {
        "astId": 161,
        "contract": "contracts/CoinFlip.sol:CoinFlip",
        "label": "minEtherBet",
        "offset": 0,
        "slot": "3",
        "type": "t_uint256"
      },
      {
        "astId": 165,
        "contract": "contracts/CoinFlip.sol:CoinFlip",
        "label": "maxEtherBet",
        "offset": 0,
        "slot": "4",
        "type": "t_uint256"
      },
      {
        "astId": 168,
        "contract": "contracts/CoinFlip.sol:CoinFlip",
        "label": "houseProfitEther",
        "offset": 0,
        "slot": "5",
        "type": "t_int256"
      },
      {
        "astId": 171,
        "contract": "contracts/CoinFlip.sol:CoinFlip",
        "label": "croupier",
        "offset": 0,
        "slot": "6",
        "type": "t_address"
      },
      {
        "astId": 174,
        "contract": "contracts/CoinFlip.sol:CoinFlip",
        "label": "profitTaker",
        "offset": 0,
        "slot": "7",
        "type": "t_address"
      },
      {
        "astId": 180,
        "contract": "contracts/CoinFlip.sol:CoinFlip",
        "label": "games",
        "offset": 0,
        "slot": "8",
        "type": "t_mapping(t_bytes32,t_struct(Game)146_storage)"
      },
      {
        "astId": 184,
        "contract": "contracts/CoinFlip.sol:CoinFlip",
        "label": "listGames",
        "offset": 0,
        "slot": "9",
        "type": "t_array(t_bytes32)dyn_storage"
      }
    ],
    "types": {
      "t_address": {
        "encoding": "inplace",
        "label": "address",
        "numberOfBytes": "20"
      },
      "t_address_payable": {
        "encoding": "inplace",
        "label": "address payable",
        "numberOfBytes": "20"
      },
      "t_array(t_bytes32)dyn_storage": {
        "base": "t_bytes32",
        "encoding": "dynamic_array",
        "label": "bytes32[]",
        "numberOfBytes": "32"
      },
      "t_bytes32": {
        "encoding": "inplace",
        "label": "bytes32",
        "numberOfBytes": "32"
      },
      "t_enum(GameState)150": {
        "encoding": "inplace",
        "label": "enum CoinFlip.GameState",
        "numberOfBytes": "1"
      },
      "t_int256": {
        "encoding": "inplace",
        "label": "int256",
        "numberOfBytes": "32"
      },
      "t_mapping(t_bytes32,t_struct(Game)146_storage)": {
        "encoding": "mapping",
        "key": "t_bytes32",
        "label": "mapping(bytes32 => struct CoinFlip.Game)",
        "numberOfBytes": "32",
        "value": "t_struct(Game)146_storage"
      },
      "t_struct(Game)146_storage": {
        "encoding": "inplace",
        "label": "struct CoinFlip.Game",
        "members": [
          {
            "astId": 132,
            "contract": "contracts/CoinFlip.sol:CoinFlip",
            "label": "id",
            "offset": 0,
            "slot": "0",
            "type": "t_uint256"
          },
          {
            "astId": 134,
            "contract": "contracts/CoinFlip.sol:CoinFlip",
            "label": "player",
            "offset": 0,
            "slot": "1",
            "type": "t_address_payable"
          },
          {
            "astId": 136,
            "contract": "contracts/CoinFlip.sol:CoinFlip",
            "label": "bet",
            "offset": 0,
            "slot": "2",
            "type": "t_uint256"
          },
          {
            "astId": 138,
            "contract": "contracts/CoinFlip.sol:CoinFlip",
            "label": "prize",
            "offset": 0,
            "slot": "3",
            "type": "t_uint256"
          },
          {
            "astId": 140,
            "contract": "contracts/CoinFlip.sol:CoinFlip",
            "label": "choice",
            "offset": 0,
            "slot": "4",
            "type": "t_uint256"
          },
          {
            "astId": 142,
            "contract": "contracts/CoinFlip.sol:CoinFlip",
            "label": "result",
            "offset": 0,
            "slot": "5",
            "type": "t_uint256"
          },
          {
            "astId": 145,
            "contract": "contracts/CoinFlip.sol:CoinFlip",
            "label": "state",
            "offset": 0,
            "slot": "6",
            "type": "t_enum(GameState)150"
          }
        ],
        "numberOfBytes": "224"
      },
      "t_uint256": {
        "encoding": "inplace",
        "label": "uint256",
        "numberOfBytes": "32"
      }
    }
  }
}