{
  "address": "0x5FbDB2315678afecb367f032d93F642f64180aa3",
  "abi": [
    {
      "inputs": [],
      "stateMutability": "nonpayable",
      "type": "constructor"
    },
    {
      "anonymous": false,
      "inputs": [
        {
          "indexed": true,
          "internalType": "address",
          "name": "player",
          "type": "address"
        },
        {
          "indexed": false,
          "internalType": "uint256",
          "name": "bet",
          "type": "uint256"
        },
        {
          "indexed": false,
          "internalType": "uint256",
          "name": "choice",
          "type": "uint256"
        },
        {
          "indexed": false,
          "internalType": "bytes32",
          "name": "seed",
          "type": "bytes32"
        }
      ],
      "name": "GameCreated",
      "type": "event"
    },
    {
      "anonymous": false,
      "inputs": [
        {
          "indexed": true,
          "internalType": "address",
          "name": "player",
          "type": "address"
        },
        {
          "indexed": false,
          "internalType": "uint256",
          "name": "bet",
          "type": "uint256"
        },
        {
          "indexed": false,
          "internalType": "uint256",
          "name": "prize",
          "type": "uint256"
        },
        {
          "indexed": false,
          "internalType": "uint256",
          "name": "choice",
          "type": "uint256"
        },
        {
          "indexed": false,
          "internalType": "uint256",
          "name": "result",
          "type": "uint256"
        },
        {
          "indexed": true,
          "internalType": "bytes32",
          "name": "seed",
          "type": "bytes32"
        },
        {
          "indexed": false,
          "internalType": "enum CoinFlip.GameState",
          "name": "state",
          "type": "uint8"
        }
      ],
      "name": "GamePlayed",
      "type": "event"
    },
    {
      "anonymous": false,
      "inputs": [
        {
          "indexed": true,
          "internalType": "address",
          "name": "previousOwner",
          "type": "address"
        },
        {
          "indexed": true,
          "internalType": "address",
          "name": "newOwner",
          "type": "address"
        }
      ],
      "name": "OwnershipTransferred",
      "type": "event"
    },
    {
      "stateMutability": "nonpayable",
      "type": "fallback"
    },
    {
      "inputs": [],
      "name": "WIN_COEFFICIENT",
      "outputs": [
        {
          "internalType": "uint256",
          "name": "",
          "type": "uint256"
        }
      ],
      "stateMutability": "view",
      "type": "function"
    },
    {
      "inputs": [],
      "name": "balanceContract",
      "outputs": [
        {
          "internalType": "uint256",
          "name": "",
          "type": "uint256"
        }
      ],
      "stateMutability": "view",
      "type": "function"
    },
    {
      "inputs": [
        {
          "internalType": "bytes32",
          "name": "_seed",
          "type": "bytes32"
        },
        {
          "internalType": "uint8",
          "name": "_v",
          "type": "uint8"
        },
        {
          "internalType": "bytes32",
          "name": "_r",
          "type": "bytes32"
        },
        {
          "internalType": "bytes32",
          "name": "_s",
          "type": "bytes32"
        }
      ],
      "name": "confirm",
      "outputs": [],
      "stateMutability": "nonpayable",
      "type": "function"
    },
    {
      "inputs": [],
      "name": "croupier",
      "outputs": [
        {
          "internalType": "address",
          "name": "",
          "type": "address"
        }
      ],
      "stateMutability": "view",
      "type": "function"
    },
    {
      "inputs": [
        {
          "internalType": "bytes32",
          "name": "",
          "type": "bytes32"
        }
      ],
      "name": "games",
      "outputs": [
        {
          "internalType": "uint256",
          "name": "id",
          "type": "uint256"
        },
        {
          "internalType": "address payable",
          "name": "player",
          "type": "address"
        },
        {
          "internalType": "uint256",
          "name": "bet",
          "type": "uint256"
        },
        {
          "internalType": "uint256",
          "name": "prize",
          "type": "uint256"
        },
        {
          "internalType": "uint256",
          "name": "choice",
          "type": "uint256"
        },
        {
          "internalType": "uint256",
          "name": "result",
          "type": "uint256"
        },
        {
          "internalType": "enum CoinFlip.GameState",
          "name": "state",
          "type": "uint8"
        }
      ],
      "stateMutability": "view",
      "type": "function"
    },
    {
      "inputs": [],
      "name": "houseProfitEther",
      "outputs": [
        {
          "internalType": "int256",
          "name": "",
          "type": "int256"
        }
      ],
      "stateMutability": "view",
      "type": "function"
    },
    {
      "inputs": [
        {
          "internalType": "uint256",
          "name": "",
          "type": "uint256"
        }
      ],
      "name": "listGames",
      "outputs": [
        {
          "internalType": "bytes32",
          "name": "",
          "type": "bytes32"
        }
      ],
      "stateMutability": "view",
      "type": "function"
    },
    {
      "inputs": [],
      "name": "maxEtherBet",
      "outputs": [
        {
          "internalType": "uint256",
          "name": "",
          "type": "uint256"
        }
      ],
      "stateMutability": "view",
      "type": "function"
    },
    {
      "inputs": [],
      "name": "minEtherBet",
      "outputs": [
        {
          "internalType": "uint256",
          "name": "",
          "type": "uint256"
        }
      ],
      "stateMutability": "view",
      "type": "function"
    },
    {
      "inputs": [],
      "name": "owner",
      "outputs": [
        {
          "internalType": "address",
          "name": "",
          "type": "address"
        }
      ],
      "stateMutability": "view",
      "type": "function"
    },
    {
      "inputs": [
        {
          "internalType": "uint256",
          "name": "_choice",
          "type": "uint256"
        },
        {
          "internalType": "bytes32",
          "name": "_seed",
          "type": "bytes32"
        }
      ],
      "name": "play",
      "outputs": [],
      "stateMutability": "payable",
      "type": "function"
    },
    {
      "inputs": [],
      "name": "profitTaker",
      "outputs": [
        {
          "internalType": "address",
          "name": "",
          "type": "address"
        }
      ],
      "stateMutability": "view",
      "type": "function"
    },
    {
      "inputs": [],
      "name": "renounceOwnership",
      "outputs": [],
      "stateMutability": "nonpayable",
      "type": "function"
    },
    {
      "inputs": [
        {
          "internalType": "uint256",
          "name": "_min",
          "type": "uint256"
        },
        {
          "internalType": "uint256",
          "name": "_max",
          "type": "uint256"
        }
      ],
      "name": "setBetRange",
      "outputs": [],
      "stateMutability": "nonpayable",
      "type": "function"
    },
    {
      "inputs": [
        {
          "internalType": "address",
          "name": "_croupier",
          "type": "address"
        }
      ],
      "name": "setCroupier",
      "outputs": [],
      "stateMutability": "nonpayable",
      "type": "function"
    },
    {
      "inputs": [
        {
          "internalType": "address",
          "name": "_profitTaker",
          "type": "address"
        }
      ],
      "name": "setProfitTaker",
      "outputs": [],
      "stateMutability": "nonpayable",
      "type": "function"
    },
    {
      "inputs": [
        {
          "internalType": "uint256",
          "name": "amount",
          "type": "uint256"
        }
      ],
      "name": "setWinCoefficient",
      "outputs": [
        {
          "internalType": "uint256",
          "name": "",
          "type": "uint256"
        }
      ],
      "stateMutability": "nonpayable",
      "type": "function"
    },
    {
      "inputs": [],
      "name": "takeProfit",
      "outputs": [],
      "stateMutability": "nonpayable",
      "type": "function"
    },
    {
      "inputs": [],
      "name": "totalGamesCount",
      "outputs": [
        {
          "internalType": "uint256",
          "name": "",
          "type": "uint256"
        }
      ],
      "stateMutability": "view",
      "type": "function"
    },
    {
      "inputs": [
        {
          "internalType": "address",
          "name": "newOwner",
          "type": "address"
        }
      ],
      "name": "transferOwnership",
      "outputs": [],
      "stateMutability": "nonpayable",
      "type": "function"
    },
    {
      "inputs": [],
      "name": "withdraw",
      "outputs": [],
      "stateMutability": "nonpayable",
      "type": "function"
    },
    {
      "stateMutability": "payable",
      "type": "receive"
    }
  ],
  "transactionHash": "0x9ce97d2814b80cf9d8c0070ca925f1adf7a4e97e81e9404208c442a23de65894",
  "args": [],
  "solcInputHash": "c871bd9f3e3b6ef6f6d108a36a3ea180",
  "bytecode": "0x608060405260c360025567016345785d8a0000600355678ac7230489e8000060045534801561002d57600080fd5b5061004a61003f6100d160201b60201c565b6100d960201b60201c565b33600660006101000a81548173ffffffffffffffffffffffffffffffffffffffff021916908373ffffffffffffffffffffffffffffffffffffffff16021790555033600760006101000a81548173ffffffffffffffffffffffffffffffffffffffff021916908373ffffffffffffffffffffffffffffffffffffffff16021790555061019d565b600033905090565b60008060009054906101000a900473ffffffffffffffffffffffffffffffffffffffff169050816000806101000a81548173ffffffffffffffffffffffffffffffffffffffff021916908373ffffffffffffffffffffffffffffffffffffffff1602179055508173ffffffffffffffffffffffffffffffffffffffff168173ffffffffffffffffffffffffffffffffffffffff167f8be0079c531659141344cd1fd0a4f28419497f9722a3daafe3b4186f6b6457e060405160405180910390a35050565b61206f80620001ad6000396000f3fe60806040526004361061012e5760003560e01c80638bc4aab2116100ab578063bf4bd0021161006f578063bf4bd002146103ab578063f2fde38b146103c7578063f579f882146103f0578063f593a38714610433578063f8bb201c1461045e578063f957eff21461048757610135565b80638bc4aab2146102c65780638da5cb5b146102f157806390e507741461031c578063abae505014610359578063b00606a51461038257610135565b806365fe09d7116100f257806365fe09d7146102075780636b5c5f391461024457806370c105781461026f578063715018a614610286578063722153731461029d57610135565b806322728b1114610144578063322a5e5f1461016f5780633ccfd60b1461019a5780635b49637e146101b15780635c6c0939146101dc57610135565b3661013557005b34801561014157600080fd5b50005b34801561015057600080fd5b506101596104b2565b604051610166919061189b565b60405180910390f35b34801561017b57600080fd5b506101846104b8565b604051610191919061189b565b60405180910390f35b3480156101a657600080fd5b506101af6104c0565b005b3480156101bd57600080fd5b506101c66105f8565b6040516101d3919061189b565b60405180910390f35b3480156101e857600080fd5b506101f16105fe565b6040516101fe919061172a565b60405180910390f35b34801561021357600080fd5b5061022e60048036038101906102299190611478565b610624565b60405161023b9190611745565b60405180910390f35b34801561025057600080fd5b50610259610648565b604051610266919061172a565b60405180910390f35b34801561027b57600080fd5b5061028461066e565b005b34801561029257600080fd5b5061029b61077f565b005b3480156102a957600080fd5b506102c460048036038101906102bf91906113b7565b610807565b005b3480156102d257600080fd5b506102db6108c7565b6040516102e89190611760565b60405180910390f35b3480156102fd57600080fd5b506103066108cd565b604051610313919061172a565b60405180910390f35b34801561032857600080fd5b50610343600480360381019061033e9190611478565b6108f6565b604051610350919061189b565b60405180910390f35b34801561036557600080fd5b50610380600480360381019061037b91906114e5565b610985565b005b34801561038e57600080fd5b506103a960048036038101906103a49190611411565b610a13565b005b6103c560048036038101906103c091906114a5565b610d82565b005b3480156103d357600080fd5b506103ee60048036038101906103e991906113b7565b611064565b005b3480156103fc57600080fd5b50610417600480360381019061041291906113e4565b61115c565b60405161042a97969594939291906118b6565b60405180910390f35b34801561043f57600080fd5b506104486111cb565b604051610455919061189b565b60405180910390f35b34801561046a57600080fd5b50610485600480360381019061048091906113b7565b6111d1565b005b34801561049357600080fd5b5061049c611291565b6040516104a9919061189b565b60405180910390f35b60035481565b600047905090565b6104c8611297565b73ffffffffffffffffffffffffffffffffffffffff166104e66108cd565b73ffffffffffffffffffffffffffffffffffffffff161461053c576040517f08c379a0000000000000000000000000000000000000000000000000000000008152600401610533906117fb565b60405180910390fd5b600060055413156105a75761054f6108cd565b73ffffffffffffffffffffffffffffffffffffffff166108fc600554476105769190611b89565b9081150290604051600060405180830381858888f193505050501580156105a1573d6000803e3d6000fd5b506105f6565b6105af6108cd565b73ffffffffffffffffffffffffffffffffffffffff166108fc479081150290604051600060405180830381858888f193505050501580156105f4573d6000803e3d6000fd5b505b565b60045481565b600760009054906101000a900473ffffffffffffffffffffffffffffffffffffffff1681565b6009818154811061063457600080fd5b906000526020600020016000915090505481565b600660009054906101000a900473ffffffffffffffffffffffffffffffffffffffff1681565b600760009054906101000a900473ffffffffffffffffffffffffffffffffffffffff1673ffffffffffffffffffffffffffffffffffffffff163373ffffffffffffffffffffffffffffffffffffffff16146106fe576040517f08c379a00000000000000000000000000000000000000000000000000000000081526004016106f59061187b565b60405180910390fd5b6000600554131561077d57600760009054906101000a900473ffffffffffffffffffffffffffffffffffffffff1673ffffffffffffffffffffffffffffffffffffffff166108fc6005549081150290604051600060405180830381858888f19350505050158015610773573d6000803e3d6000fd5b5060006005819055505b565b610787611297565b73ffffffffffffffffffffffffffffffffffffffff166107a56108cd565b73ffffffffffffffffffffffffffffffffffffffff16146107fb576040517f08c379a00000000000000000000000000000000000000000000000000000000081526004016107f2906117fb565b60405180910390fd5b610805600061129f565b565b61080f611297565b73ffffffffffffffffffffffffffffffffffffffff1661082d6108cd565b73ffffffffffffffffffffffffffffffffffffffff1614610883576040517f08c379a000000000000000000000000000000000000000000000000000000000815260040161087a906117fb565b60405180910390fd5b80600760006101000a81548173ffffffffffffffffffffffffffffffffffffffff021916908373ffffffffffffffffffffffffffffffffffffffff16021790555050565b60055481565b60008060009054906101000a900473ffffffffffffffffffffffffffffffffffffffff16905090565b6000610900611297565b73ffffffffffffffffffffffffffffffffffffffff1661091e6108cd565b73ffffffffffffffffffffffffffffffffffffffff1614610974576040517f08c379a000000000000000000000000000000000000000000000000000000000815260040161096b906117fb565b60405180910390fd5b816002819055506002549050919050565b61098d611297565b73ffffffffffffffffffffffffffffffffffffffff166109ab6108cd565b73ffffffffffffffffffffffffffffffffffffffff1614610a01576040517f08c379a00000000000000000000000000000000000000000000000000000000081526004016109f8906117fb565b60405180910390fd5b81600381905550806004819055505050565b600660009054906101000a900473ffffffffffffffffffffffffffffffffffffffff1673ffffffffffffffffffffffffffffffffffffffff163373ffffffffffffffffffffffffffffffffffffffff1614610aa3576040517f08c379a0000000000000000000000000000000000000000000000000000000008152600401610a9a9061181b565b60405180910390fd5b600060086000868152602001908152602001600020905060006002811115610ace57610acd611d66565b5b8160060160009054906101000a900460ff166002811115610af257610af1611d66565b5b14610b32576040517f08c379a0000000000000000000000000000000000000000000000000000000008152600401610b29906117db565b60405180910390fd5b60006040518060400160405280601c81526020017f19457468657265756d205369676e6564204d6573736167653a0a333200000000815250905060008187604051602001610b81929190611702565b60405160208183030381529060405280519060200120905060028460001c610ba99190611cd7565b8360050181905550826005015483600401541415610ca55760646002548460020154610bd59190611a9b565b610bdf9190611a6a565b836003018190555060018360060160006101000a81548160ff02191690836002811115610c0f57610c0e611d66565b5b0217905550826003015460056000828254610c2a9190611af5565b925050819055508260010160009054906101000a900473ffffffffffffffffffffffffffffffffffffffff1673ffffffffffffffffffffffffffffffffffffffff166108fc84600301549081150290604051600060405180830381858888f19350505050158015610c9f573d6000803e3d6000fd5b50610cdd565b6000836003018190555060028360060160006101000a81548160ff02191690836002811115610cd757610cd6611d66565b5b02179055505b868360010160009054906101000a900473ffffffffffffffffffffffffffffffffffffffff1673ffffffffffffffffffffffffffffffffffffffff167f66a277eae08be005534c699a6a8bb8d6130423996a074a37936859d78dab29b985600201548660030154876004015488600501548960060160009054906101000a900460ff16604051610d7195949392919061195c565b60405180910390a350505050505050565b3460035411158015610d9657506004543411155b610dd5576040517f08c379a0000000000000000000000000000000000000000000000000000000008152600401610dcc9061177b565b60405180910390fd5b806000600860008381526020019081526020016000206000015414610e2f576040517f08c379a0000000000000000000000000000000000000000000000000000000008152600401610e269061185b565b60405180910390fd5b6000831480610e3e5750600183145b610e7d576040517f08c379a0000000000000000000000000000000000000000000000000000000008152600401610e74906117bb565b60405180910390fd5b6000606460025434610e8f9190611a9b565b610e999190611a6a565b9050478110610edd576040517f08c379a0000000000000000000000000000000000000000000000000000000008152600401610ed49061183b565b60405180910390fd5b600060086000858152602001908152602001600020905060016000815480929190610f0790611c84565b91905055506001548160000181905550338160010160006101000a81548173ffffffffffffffffffffffffffffffffffffffff021916908373ffffffffffffffffffffffffffffffffffffffff16021790555034816002018190555084816004018190555060008160060160006101000a81548160ff02191690836002811115610f9457610f93611d66565b5b0217905550806002015460056000828254610faf91906119d6565b9250508190555060098490806001815401808255809150506001900390600052602060002001600090919091909150558060010160009054906101000a900473ffffffffffffffffffffffffffffffffffffffff1673ffffffffffffffffffffffffffffffffffffffff167f0b67fb309cd70de956ad131734cbf3dcf23c78aa040b81ad1f7974defdfa511c826002015483600401548760405161105593929190611925565b60405180910390a25050505050565b61106c611297565b73ffffffffffffffffffffffffffffffffffffffff1661108a6108cd565b73ffffffffffffffffffffffffffffffffffffffff16146110e0576040517f08c379a00000000000000000000000000000000000000000000000000000000081526004016110d7906117fb565b60405180910390fd5b600073ffffffffffffffffffffffffffffffffffffffff168173ffffffffffffffffffffffffffffffffffffffff161415611150576040517f08c379a00000000000000000000000000000000000000000000000000000000081526004016111479061179b565b60405180910390fd5b6111598161129f565b50565b60086020528060005260406000206000915090508060000154908060010160009054906101000a900473ffffffffffffffffffffffffffffffffffffffff16908060020154908060030154908060040154908060050154908060060160009054906101000a900460ff16905087565b60015481565b6111d9611297565b73ffffffffffffffffffffffffffffffffffffffff166111f76108cd565b73ffffffffffffffffffffffffffffffffffffffff161461124d576040517f08c379a0000000000000000000000000000000000000000000000000000000008152600401611244906117fb565b60405180910390fd5b80600660006101000a81548173ffffffffffffffffffffffffffffffffffffffff021916908373ffffffffffffffffffffffffffffffffffffffff16021790555050565b60025481565b600033905090565b60008060009054906101000a900473ffffffffffffffffffffffffffffffffffffffff169050816000806101000a81548173ffffffffffffffffffffffffffffffffffffffff021916908373ffffffffffffffffffffffffffffffffffffffff1602179055508173ffffffffffffffffffffffffffffffffffffffff168173ffffffffffffffffffffffffffffffffffffffff167f8be0079c531659141344cd1fd0a4f28419497f9722a3daafe3b4186f6b6457e060405160405180910390a35050565b60008135905061137281611fdd565b92915050565b60008135905061138781611ff4565b92915050565b60008135905061139c8161200b565b92915050565b6000813590506113b181612022565b92915050565b6000602082840312156113cd576113cc611d95565b5b60006113db84828501611363565b91505092915050565b6000602082840312156113fa576113f9611d95565b5b600061140884828501611378565b91505092915050565b6000806000806080858703121561142b5761142a611d95565b5b600061143987828801611378565b945050602061144a878288016113a2565b935050604061145b87828801611378565b925050606061146c87828801611378565b91505092959194509250565b60006020828403121561148e5761148d611d95565b5b600061149c8482850161138d565b91505092915050565b600080604083850312156114bc576114bb611d95565b5b60006114ca8582860161138d565b92505060206114db85828601611378565b9150509250929050565b600080604083850312156114fc576114fb611d95565b5b600061150a8582860161138d565b925050602061151b8582860161138d565b9150509250929050565b61152e81611bcf565b82525050565b61153d81611bbd565b82525050565b61154c81611be1565b82525050565b61156361155e82611be1565b611ccd565b82525050565b6000611574826119af565b61157e81856119ba565b935061158e818560208601611c51565b80840191505092915050565b6115a381611c3f565b82525050565b6115b281611bfe565b82525050565b60006115c56023836119c5565b91506115d082611d9a565b604082019050919050565b60006115e86026836119c5565b91506115f382611de9565b604082019050919050565b600061160b6017836119c5565b915061161682611e38565b602082019050919050565b600061162e6013836119c5565b915061163982611e61565b602082019050919050565b60006116516020836119c5565b915061165c82611e8a565b602082019050919050565b60006116746028836119c5565b915061167f82611eb3565b604082019050919050565b6000611697602e836119c5565b91506116a282611f02565b604082019050919050565b60006116ba6011836119c5565b91506116c582611f51565b602082019050919050565b60006116dd602c836119c5565b91506116e882611f7a565b604082019050919050565b6116fc81611c28565b82525050565b600061170e8285611569565b915061171a8284611552565b6020820191508190509392505050565b600060208201905061173f6000830184611534565b92915050565b600060208201905061175a6000830184611543565b92915050565b600060208201905061177560008301846115a9565b92915050565b60006020820190508181036000830152611794816115b8565b9050919050565b600060208201905081810360008301526117b4816115db565b9050919050565b600060208201905081810360008301526117d4816115fe565b9050919050565b600060208201905081810360008301526117f481611621565b9050919050565b6000602082019050818103600083015261181481611644565b9050919050565b6000602082019050818103600083015261183481611667565b9050919050565b600060208201905081810360008301526118548161168a565b9050919050565b60006020820190508181036000830152611874816116ad565b9050919050565b60006020820190508181036000830152611894816116d0565b9050919050565b60006020820190506118b060008301846116f3565b92915050565b600060e0820190506118cb600083018a6116f3565b6118d86020830189611525565b6118e560408301886116f3565b6118f260608301876116f3565b6118ff60808301866116f3565b61190c60a08301856116f3565b61191960c083018461159a565b98975050505050505050565b600060608201905061193a60008301866116f3565b61194760208301856116f3565b6119546040830184611543565b949350505050565b600060a08201905061197160008301886116f3565b61197e60208301876116f3565b61198b60408301866116f3565b61199860608301856116f3565b6119a5608083018461159a565b9695505050505050565b600081519050919050565b600081905092915050565b600082825260208201905092915050565b60006119e182611bfe565b91506119ec83611bfe565b9250817f7fffffffffffffffffffffffffffffffffffffffffffffffffffffffffffffff03831360008312151615611a2757611a26611d08565b5b817f8000000000000000000000000000000000000000000000000000000000000000038312600083121615611a5f57611a5e611d08565b5b828201905092915050565b6000611a7582611c28565b9150611a8083611c28565b925082611a9057611a8f611d37565b5b828204905092915050565b6000611aa682611c28565b9150611ab183611c28565b9250817fffffffffffffffffffffffffffffffffffffffffffffffffffffffffffffffff0483118215151615611aea57611ae9611d08565b5b828202905092915050565b6000611b0082611bfe565b9150611b0b83611bfe565b9250827f800000000000000000000000000000000000000000000000000000000000000001821260008412151615611b4657611b45611d08565b5b827f7fffffffffffffffffffffffffffffffffffffffffffffffffffffffffffffff018213600084121615611b7e57611b7d611d08565b5b828203905092915050565b6000611b9482611c28565b9150611b9f83611c28565b925082821015611bb257611bb1611d08565b5b828203905092915050565b6000611bc882611c08565b9050919050565b6000611bda82611c08565b9050919050565b6000819050919050565b6000819050611bf982611fc9565b919050565b6000819050919050565b600073ffffffffffffffffffffffffffffffffffffffff82169050919050565b6000819050919050565b600060ff82169050919050565b6000611c4a82611beb565b9050919050565b60005b83811015611c6f578082015181840152602081019050611c54565b83811115611c7e576000848401525b50505050565b6000611c8f82611c28565b91507fffffffffffffffffffffffffffffffffffffffffffffffffffffffffffffffff821415611cc257611cc1611d08565b5b600182019050919050565b6000819050919050565b6000611ce282611c28565b9150611ced83611c28565b925082611cfd57611cfc611d37565b5b828206905092915050565b7f4e487b7100000000000000000000000000000000000000000000000000000000600052601160045260246000fd5b7f4e487b7100000000000000000000000000000000000000000000000000000000600052601260045260246000fd5b7f4e487b7100000000000000000000000000000000000000000000000000000000600052602160045260246000fd5b600080fd5b7f52617465206973206e6f74206265747765656e206d696e20616e64206d61782060008201527f6265740000000000000000000000000000000000000000000000000000000000602082015250565b7f4f776e61626c653a206e6577206f776e657220697320746865207a65726f206160008201527f6464726573730000000000000000000000000000000000000000000000000000602082015250565b7f43686f6963652073686f756c642062652030206f722031000000000000000000600082015250565b7f47616d6520616c726561647920706c6179656400000000000000000000000000600082015250565b7f4f776e61626c653a2063616c6c6572206973206e6f7420746865206f776e6572600082015250565b7f4f6e6c79207468652063726f75706965722063616e2072756e2074686973206660008201527f756e6374696f6e2e000000000000000000000000000000000000000000000000602082015250565b7f496e737566666963656e742066756e6473206f6e20636f6e747261637420746f60008201527f20636f7665722074686520626574000000000000000000000000000000000000602082015250565b7f5365656420616c72656164792075736564000000000000000000000000000000600082015250565b7f4f6e6c79207468652070726f6669742074616b65722063616e2072756e20746860008201527f69732066756e6374696f6e2e0000000000000000000000000000000000000000602082015250565b60038110611fda57611fd9611d66565b5b50565b611fe681611bbd565b8114611ff157600080fd5b50565b611ffd81611be1565b811461200857600080fd5b50565b61201481611c28565b811461201f57600080fd5b50565b61202b81611c32565b811461203657600080fd5b5056fea2646970667358221220ab120c2802e99226aea84d68f14001163558b656b3b44120f05f8a87f1770f5e64736f6c63430008060033",
  "devdoc": {
    "kind": "dev",
    "methods": {
      "confirm(bytes32,uint8,bytes32,bytes32)": {
        "params": {
          "_seed": ": Uniqual value for each game"
        }
      },
      "owner()": {
        "details": "Returns the address of the current owner."
      },
      "play(uint256,bytes32)": {
        "params": {
          "_seed": ": Uniqual value for each game"
        }
      },
      "renounceOwnership()": {
        "details": "Leaves the contract without owner. It will not be possible to call `onlyOwner` functions anymore. Can only be called by the current owner. NOTE: Renouncing ownership will leave the contract without an owner, thereby removing any functionality that is only available to the owner."
      },
      "setBetRange(uint256,uint256)": {
        "params": {
          "_max": ": New maxEtherBet",
          "_min": ": New minEtherBet"
        }
      },
      "setCroupier(address)": {
        "params": {
          "_croupier": ": New croupier"
        }
      },
      "setProfitTaker(address)": {
        "params": {
          "_profitTaker": ": New profitTaker"
        }
      },
      "setWinCoefficient(uint256)": {
        "params": {
          "amount": ": New WIN_COEFFICIENT"
        }
      },
      "transferOwnership(address)": {
        "details": "Transfers ownership of the contract to a new account (`newOwner`). Can only be called by the current owner."
      }
    },
    "version": 1
  },
  "userdoc": {
    "kind": "user",
    "methods": {
      "WIN_COEFFICIENT()": {
        "notice": "Coefficient for win. x / 100"
      },
      "confirm(bytes32,uint8,bytes32,bytes32)": {
        "notice": "Confirm the game, with seed"
      },
      "croupier()": {
        "notice": "Croupier"
      },
      "games(bytes32)": {
        "notice": "Info of each game"
      },
      "houseProfitEther()": {
        "notice": "Profit from bets"
      },
      "listGames(uint256)": {
        "notice": "Games seeds"
      },
      "maxEtherBet()": {
        "notice": "Maximal amount for bet"
      },
      "minEtherBet()": {
        "notice": "Minimal amount for bet"
      },
      "play(uint256,bytes32)": {
        "notice": "Add new game"
      },
      "profitTaker()": {
        "notice": "Person how will receive houseProfitEther"
      },
      "setBetRange(uint256,uint256)": {
        "notice": "Set new minEtherBet and maxEtherBet"
      },
      "setCroupier(address)": {
        "notice": "Set new croupier"
      },
      "setProfitTaker(address)": {
        "notice": "Set new profitTaker"
      },
      "setWinCoefficient(uint256)": {
        "notice": "Set new WIN_COEFFICIENT"
      },
      "takeProfit()": {
        "notice": "sends houseProfitEther to profitTaker"
      },
      "totalGamesCount()": {
        "notice": "Number of all games"
      },
      "withdraw()": {
        "notice": "sends contract's excessive balance to owner"
      }
    },
    "version": 1
  },
  "storageLayout": {
    "storage": [
      {
        "astId": 7,
        "contract": "contracts/CoinFlip.sol:CoinFlip",
        "label": "_owner",
        "offset": 0,
        "slot": "0",
        "type": "t_address"
      },
      {
        "astId": 153,
        "contract": "contracts/CoinFlip.sol:CoinFlip",
        "label": "totalGamesCount",
        "offset": 0,
        "slot": "1",
        "type": "t_uint256"
      },
      {
        "astId": 157,
        "contract": "contracts/CoinFlip.sol:CoinFlip",
        "label": "WIN_COEFFICIENT",
        "offset": 0,
        "slot": "2",
        "type": "t_uint256"
      },
      {
        "astId": 161,
        "contract": "contracts/CoinFlip.sol:CoinFlip",
        "label": "minEtherBet",
        "offset": 0,
        "slot": "3",
        "type": "t_uint256"
      },
      {
        "astId": 165,
        "contract": "contracts/CoinFlip.sol:CoinFlip",
        "label": "maxEtherBet",
        "offset": 0,
        "slot": "4",
        "type": "t_uint256"
      },
      {
        "astId": 168,
        "contract": "contracts/CoinFlip.sol:CoinFlip",
        "label": "houseProfitEther",
        "offset": 0,
        "slot": "5",
        "type": "t_int256"
      },
      {
        "astId": 171,
        "contract": "contracts/CoinFlip.sol:CoinFlip",
        "label": "croupier",
        "offset": 0,
        "slot": "6",
        "type": "t_address"
      },
      {
        "astId": 174,
        "contract": "contracts/CoinFlip.sol:CoinFlip",
        "label": "profitTaker",
        "offset": 0,
        "slot": "7",
        "type": "t_address"
      },
      {
        "astId": 180,
        "contract": "contracts/CoinFlip.sol:CoinFlip",
        "label": "games",
        "offset": 0,
        "slot": "8",
        "type": "t_mapping(t_bytes32,t_struct(Game)146_storage)"
      },
      {
        "astId": 184,
        "contract": "contracts/CoinFlip.sol:CoinFlip",
        "label": "listGames",
        "offset": 0,
        "slot": "9",
        "type": "t_array(t_bytes32)dyn_storage"
      }
    ],
    "types": {
      "t_address": {
        "encoding": "inplace",
        "label": "address",
        "numberOfBytes": "20"
      },
      "t_address_payable": {
        "encoding": "inplace",
        "label": "address payable",
        "numberOfBytes": "20"
      },
      "t_array(t_bytes32)dyn_storage": {
        "base": "t_bytes32",
        "encoding": "dynamic_array",
        "label": "bytes32[]",
        "numberOfBytes": "32"
      },
      "t_bytes32": {
        "encoding": "inplace",
        "label": "bytes32",
        "numberOfBytes": "32"
      },
      "t_enum(GameState)150": {
        "encoding": "inplace",
        "label": "enum CoinFlip.GameState",
        "numberOfBytes": "1"
      },
      "t_int256": {
        "encoding": "inplace",
        "label": "int256",
        "numberOfBytes": "32"
      },
      "t_mapping(t_bytes32,t_struct(Game)146_storage)": {
        "encoding": "mapping",
        "key": "t_bytes32",
        "label": "mapping(bytes32 => struct CoinFlip.Game)",
        "numberOfBytes": "32",
        "value": "t_struct(Game)146_storage"
      },
      "t_struct(Game)146_storage": {
        "encoding": "inplace",
        "label": "struct CoinFlip.Game",
        "members": [
          {
            "astId": 132,
            "contract": "contracts/CoinFlip.sol:CoinFlip",
            "label": "id",
            "offset": 0,
            "slot": "0",
            "type": "t_uint256"
          },
          {
            "astId": 134,
            "contract": "contracts/CoinFlip.sol:CoinFlip",
            "label": "player",
            "offset": 0,
            "slot": "1",
            "type": "t_address_payable"
          },
          {
            "astId": 136,
            "contract": "contracts/CoinFlip.sol:CoinFlip",
            "label": "bet",
            "offset": 0,
            "slot": "2",
            "type": "t_uint256"
          },
          {
            "astId": 138,
            "contract": "contracts/CoinFlip.sol:CoinFlip",
            "label": "prize",
            "offset": 0,
            "slot": "3",
            "type": "t_uint256"
          },
          {
            "astId": 140,
            "contract": "contracts/CoinFlip.sol:CoinFlip",
            "label": "choice",
            "offset": 0,
            "slot": "4",
            "type": "t_uint256"
          },
          {
            "astId": 142,
            "contract": "contracts/CoinFlip.sol:CoinFlip",
            "label": "result",
            "offset": 0,
            "slot": "5",
            "type": "t_uint256"
          },
          {
            "astId": 145,
            "contract": "contracts/CoinFlip.sol:CoinFlip",
            "label": "state",
            "offset": 0,
            "slot": "6",
            "type": "t_enum(GameState)150"
          }
        ],
        "numberOfBytes": "224"
      },
      "t_uint256": {
        "encoding": "inplace",
        "label": "uint256",
        "numberOfBytes": "32"
      }
    }
  }
}