{
  "address": "0x5FbDB2315678afecb367f032d93F642f64180aa3",
  "abi": [
    {
      "inputs": [],
      "stateMutability": "nonpayable",
      "type": "constructor"
    },
    {
      "anonymous": false,
      "inputs": [
        {
          "indexed": true,
          "internalType": "address",
          "name": "player",
          "type": "address"
        },
        {
          "indexed": false,
          "internalType": "uint256",
          "name": "bet",
          "type": "uint256"
        },
        {
          "indexed": false,
          "internalType": "uint256",
          "name": "choice",
          "type": "uint256"
        },
        {
          "indexed": false,
          "internalType": "bytes32",
          "name": "seed",
          "type": "bytes32"
        }
      ],
      "name": "GameCreated",
      "type": "event"
    },
    {
      "anonymous": false,
      "inputs": [
        {
          "indexed": true,
          "internalType": "address",
          "name": "player",
          "type": "address"
        },
        {
          "indexed": false,
          "internalType": "uint256",
          "name": "bet",
          "type": "uint256"
        },
        {
          "indexed": false,
          "internalType": "uint256",
          "name": "prize",
          "type": "uint256"
        },
        {
          "indexed": false,
          "internalType": "uint256",
          "name": "choice",
          "type": "uint256"
        },
        {
          "indexed": false,
          "internalType": "uint256",
          "name": "result",
          "type": "uint256"
        },
        {
          "indexed": true,
          "internalType": "bytes32",
          "name": "seed",
          "type": "bytes32"
        },
        {
          "indexed": false,
          "internalType": "enum CoinFlip.GameState",
          "name": "state",
          "type": "uint8"
        }
      ],
      "name": "GamePlayed",
      "type": "event"
    },
    {
      "anonymous": false,
      "inputs": [
        {
          "indexed": true,
          "internalType": "address",
          "name": "previousOwner",
          "type": "address"
        },
        {
          "indexed": true,
          "internalType": "address",
          "name": "newOwner",
          "type": "address"
        }
      ],
      "name": "OwnershipTransferred",
      "type": "event"
    },
    {
      "stateMutability": "nonpayable",
      "type": "fallback"
    },
    {
      "inputs": [],
      "name": "WIN_COEFFICIENT",
      "outputs": [
        {
          "internalType": "uint256",
          "name": "",
          "type": "uint256"
        }
      ],
      "stateMutability": "view",
      "type": "function"
    },
    {
      "inputs": [],
      "name": "balanceContract",
      "outputs": [
        {
          "internalType": "uint256",
          "name": "",
          "type": "uint256"
        }
      ],
      "stateMutability": "view",
      "type": "function"
    },
    {
      "inputs": [
        {
          "internalType": "bytes32",
          "name": "_seed",
          "type": "bytes32"
        },
        {
          "internalType": "uint8",
          "name": "_v",
          "type": "uint8"
        },
        {
          "internalType": "bytes32",
          "name": "_r",
          "type": "bytes32"
        },
        {
          "internalType": "bytes32",
          "name": "_s",
          "type": "bytes32"
        }
      ],
      "name": "confirm",
      "outputs": [],
      "stateMutability": "nonpayable",
      "type": "function"
    },
    {
      "inputs": [],
      "name": "croupier",
      "outputs": [
        {
          "internalType": "address",
          "name": "",
          "type": "address"
        }
      ],
      "stateMutability": "view",
      "type": "function"
    },
    {
      "inputs": [
        {
          "internalType": "bytes32",
          "name": "",
          "type": "bytes32"
        }
      ],
      "name": "games",
      "outputs": [
        {
          "internalType": "uint256",
          "name": "id",
          "type": "uint256"
        },
        {
          "internalType": "address payable",
          "name": "player",
          "type": "address"
        },
        {
          "internalType": "uint256",
          "name": "bet",
          "type": "uint256"
        },
        {
          "internalType": "uint256",
          "name": "prize",
          "type": "uint256"
        },
        {
          "internalType": "uint256",
          "name": "choice",
          "type": "uint256"
        },
        {
          "internalType": "uint256",
          "name": "result",
          "type": "uint256"
        },
        {
          "internalType": "enum CoinFlip.GameState",
          "name": "state",
          "type": "uint8"
        }
      ],
      "stateMutability": "view",
      "type": "function"
    },
    {
      "inputs": [],
      "name": "houseProfitEther",
      "outputs": [
        {
          "internalType": "int256",
          "name": "",
          "type": "int256"
        }
      ],
      "stateMutability": "view",
      "type": "function"
    },
    {
      "inputs": [
        {
          "internalType": "uint256",
          "name": "",
          "type": "uint256"
        }
      ],
      "name": "listGames",
      "outputs": [
        {
          "internalType": "bytes32",
          "name": "",
          "type": "bytes32"
        }
      ],
      "stateMutability": "view",
      "type": "function"
    },
    {
      "inputs": [],
      "name": "maxEtherBet",
      "outputs": [
        {
          "internalType": "uint256",
          "name": "",
          "type": "uint256"
        }
      ],
      "stateMutability": "view",
      "type": "function"
    },
    {
      "inputs": [],
      "name": "minEtherBet",
      "outputs": [
        {
          "internalType": "uint256",
          "name": "",
          "type": "uint256"
        }
      ],
      "stateMutability": "view",
      "type": "function"
    },
    {
      "inputs": [],
      "name": "owner",
      "outputs": [
        {
          "internalType": "address",
          "name": "",
          "type": "address"
        }
      ],
      "stateMutability": "view",
      "type": "function"
    },
    {
      "inputs": [
        {
          "internalType": "uint256",
          "name": "_choice",
          "type": "uint256"
        },
        {
          "internalType": "bytes32",
          "name": "_seed",
          "type": "bytes32"
        }
      ],
      "name": "play",
      "outputs": [],
      "stateMutability": "payable",
      "type": "function"
    },
    {
      "inputs": [],
      "name": "profitTaker",
      "outputs": [
        {
          "internalType": "address",
          "name": "",
          "type": "address"
        }
      ],
      "stateMutability": "view",
      "type": "function"
    },
    {
      "inputs": [],
      "name": "renounceOwnership",
      "outputs": [],
      "stateMutability": "nonpayable",
      "type": "function"
    },
    {
      "inputs": [
        {
          "internalType": "uint256",
          "name": "_min",
          "type": "uint256"
        },
        {
          "internalType": "uint256",
          "name": "_max",
          "type": "uint256"
        }
      ],
      "name": "setBetRange",
      "outputs": [],
      "stateMutability": "nonpayable",
      "type": "function"
    },
    {
      "inputs": [
        {
          "internalType": "address",
          "name": "_croupier",
          "type": "address"
        }
      ],
      "name": "setCroupier",
      "outputs": [],
      "stateMutability": "nonpayable",
      "type": "function"
    },
    {
      "inputs": [
        {
          "internalType": "address",
          "name": "_profitTaker",
          "type": "address"
        }
      ],
      "name": "setProfitTaker",
      "outputs": [],
      "stateMutability": "nonpayable",
      "type": "function"
    },
    {
      "inputs": [
        {
          "internalType": "uint256",
          "name": "amount",
          "type": "uint256"
        }
      ],
      "name": "setWinCoefficient",
      "outputs": [
        {
          "internalType": "uint256",
          "name": "",
          "type": "uint256"
        }
      ],
      "stateMutability": "nonpayable",
      "type": "function"
    },
    {
      "inputs": [],
      "name": "takeProfit",
      "outputs": [],
      "stateMutability": "nonpayable",
      "type": "function"
    },
    {
      "inputs": [],
      "name": "totalGamesCount",
      "outputs": [
        {
          "internalType": "uint256",
          "name": "",
          "type": "uint256"
        }
      ],
      "stateMutability": "view",
      "type": "function"
    },
    {
      "inputs": [
        {
          "internalType": "address",
          "name": "newOwner",
          "type": "address"
        }
      ],
      "name": "transferOwnership",
      "outputs": [],
      "stateMutability": "nonpayable",
      "type": "function"
    },
    {
      "inputs": [],
      "name": "withdraw",
      "outputs": [],
      "stateMutability": "nonpayable",
      "type": "function"
    },
    {
      "stateMutability": "payable",
      "type": "receive"
    }
  ],
  "transactionHash": "0x850d17be437850771c17f325848bad2134f876077c42e0803b82ac31b96139df",
  "args": [],
  "solcInputHash": "864fa186ff900a8522f8261a9d3fd49a",
  "bytecode": "0x608060405260c360025567016345785d8a0000600355678ac7230489e8000060045534801561002d57600080fd5b5061004a61003f6100d160201b60201c565b6100d960201b60201c565b33600660006101000a81548173ffffffffffffffffffffffffffffffffffffffff021916908373ffffffffffffffffffffffffffffffffffffffff16021790555033600760006101000a81548173ffffffffffffffffffffffffffffffffffffffff021916908373ffffffffffffffffffffffffffffffffffffffff16021790555061019d565b600033905090565b60008060009054906101000a900473ffffffffffffffffffffffffffffffffffffffff169050816000806101000a81548173ffffffffffffffffffffffffffffffffffffffff021916908373ffffffffffffffffffffffffffffffffffffffff1602179055508173ffffffffffffffffffffffffffffffffffffffff168173ffffffffffffffffffffffffffffffffffffffff167f8be0079c531659141344cd1fd0a4f28419497f9722a3daafe3b4186f6b6457e060405160405180910390a35050565b61220d80620001ad6000396000f3fe60806040526004361061012e5760003560e01c80638bc4aab2116100ab578063bf4bd0021161006f578063bf4bd002146103ab578063f2fde38b146103c7578063f579f882146103f0578063f593a38714610433578063f8bb201c1461045e578063f957eff21461048757610135565b80638bc4aab2146102c65780638da5cb5b146102f157806390e507741461031c578063abae505014610359578063b00606a51461038257610135565b806365fe09d7116100f257806365fe09d7146102075780636b5c5f391461024457806370c105781461026f578063715018a614610286578063722153731461029d57610135565b806322728b1114610144578063322a5e5f1461016f5780633ccfd60b1461019a5780635b49637e146101b15780635c6c0939146101dc57610135565b3661013557005b34801561014157600080fd5b50005b34801561015057600080fd5b506101596104b2565b6040516101669190611a10565b60405180910390f35b34801561017b57600080fd5b506101846104b8565b6040516101919190611a10565b60405180910390f35b3480156101a657600080fd5b506101af6104c0565b005b3480156101bd57600080fd5b506101c66105f8565b6040516101d39190611a10565b60405180910390f35b3480156101e857600080fd5b506101f16105fe565b6040516101fe919061183a565b60405180910390f35b34801561021357600080fd5b5061022e60048036038101906102299190611556565b610624565b60405161023b9190611855565b60405180910390f35b34801561025057600080fd5b50610259610648565b604051610266919061183a565b60405180910390f35b34801561027b57600080fd5b5061028461066e565b005b34801561029257600080fd5b5061029b61077f565b005b3480156102a957600080fd5b506102c460048036038101906102bf9190611495565b610807565b005b3480156102d257600080fd5b506102db6108c7565b6040516102e891906118b5565b60405180910390f35b3480156102fd57600080fd5b506103066108cd565b604051610313919061183a565b60405180910390f35b34801561032857600080fd5b50610343600480360381019061033e9190611556565b6108f6565b6040516103509190611a10565b60405180910390f35b34801561036557600080fd5b50610380600480360381019061037b91906115c3565b610985565b005b34801561038e57600080fd5b506103a960048036038101906103a491906114ef565b610a13565b005b6103c560048036038101906103c09190611583565b610e60565b005b3480156103d357600080fd5b506103ee60048036038101906103e99190611495565b611142565b005b3480156103fc57600080fd5b50610417600480360381019061041291906114c2565b61123a565b60405161042a9796959493929190611a2b565b60405180910390f35b34801561043f57600080fd5b506104486112a9565b6040516104559190611a10565b60405180910390f35b34801561046a57600080fd5b5061048560048036038101906104809190611495565b6112af565b005b34801561049357600080fd5b5061049c61136f565b6040516104a99190611a10565b60405180910390f35b60035481565b600047905090565b6104c8611375565b73ffffffffffffffffffffffffffffffffffffffff166104e66108cd565b73ffffffffffffffffffffffffffffffffffffffff161461053c576040517f08c379a000000000000000000000000000000000000000000000000000000000815260040161053390611970565b60405180910390fd5b600060055413156105a75761054f6108cd565b73ffffffffffffffffffffffffffffffffffffffff166108fc600554476105769190611cfe565b9081150290604051600060405180830381858888f193505050501580156105a1573d6000803e3d6000fd5b506105f6565b6105af6108cd565b73ffffffffffffffffffffffffffffffffffffffff166108fc479081150290604051600060405180830381858888f193505050501580156105f4573d6000803e3d6000fd5b505b565b60045481565b600760009054906101000a900473ffffffffffffffffffffffffffffffffffffffff1681565b6009818154811061063457600080fd5b906000526020600020016000915090505481565b600660009054906101000a900473ffffffffffffffffffffffffffffffffffffffff1681565b600760009054906101000a900473ffffffffffffffffffffffffffffffffffffffff1673ffffffffffffffffffffffffffffffffffffffff163373ffffffffffffffffffffffffffffffffffffffff16146106fe576040517f08c379a00000000000000000000000000000000000000000000000000000000081526004016106f5906119f0565b60405180910390fd5b6000600554131561077d57600760009054906101000a900473ffffffffffffffffffffffffffffffffffffffff1673ffffffffffffffffffffffffffffffffffffffff166108fc6005549081150290604051600060405180830381858888f19350505050158015610773573d6000803e3d6000fd5b5060006005819055505b565b610787611375565b73ffffffffffffffffffffffffffffffffffffffff166107a56108cd565b73ffffffffffffffffffffffffffffffffffffffff16146107fb576040517f08c379a00000000000000000000000000000000000000000000000000000000081526004016107f290611970565b60405180910390fd5b610805600061137d565b565b61080f611375565b73ffffffffffffffffffffffffffffffffffffffff1661082d6108cd565b73ffffffffffffffffffffffffffffffffffffffff1614610883576040517f08c379a000000000000000000000000000000000000000000000000000000000815260040161087a90611970565b60405180910390fd5b80600760006101000a81548173ffffffffffffffffffffffffffffffffffffffff021916908373ffffffffffffffffffffffffffffffffffffffff16021790555050565b60055481565b60008060009054906101000a900473ffffffffffffffffffffffffffffffffffffffff16905090565b6000610900611375565b73ffffffffffffffffffffffffffffffffffffffff1661091e6108cd565b73ffffffffffffffffffffffffffffffffffffffff1614610974576040517f08c379a000000000000000000000000000000000000000000000000000000000815260040161096b90611970565b60405180910390fd5b816002819055506002549050919050565b61098d611375565b73ffffffffffffffffffffffffffffffffffffffff166109ab6108cd565b73ffffffffffffffffffffffffffffffffffffffff1614610a01576040517f08c379a00000000000000000000000000000000000000000000000000000000081526004016109f890611970565b60405180910390fd5b81600381905550806004819055505050565b600660009054906101000a900473ffffffffffffffffffffffffffffffffffffffff1673ffffffffffffffffffffffffffffffffffffffff163373ffffffffffffffffffffffffffffffffffffffff1614610aa3576040517f08c379a0000000000000000000000000000000000000000000000000000000008152600401610a9a90611990565b60405180910390fd5b600060086000868152602001908152602001600020905060006002811115610ace57610acd611edb565b5b8160060160009054906101000a900460ff166002811115610af257610af1611edb565b5b14610b32576040517f08c379a0000000000000000000000000000000000000000000000000000000008152600401610b2990611950565b60405180910390fd5b60006040518060400160405280601c81526020017f19457468657265756d205369676e6564204d6573736167653a0a333200000000815250905060008187604051602001610b81929190611812565b604051602081830303815290604052805190602001209050600660009054906101000a900473ffffffffffffffffffffffffffffffffffffffff1673ffffffffffffffffffffffffffffffffffffffff1660018288888860405160008152602001604052604051610bf59493929190611870565b6020604051602081039080840390855afa158015610c17573d6000803e3d6000fd5b5050506020604051035173ffffffffffffffffffffffffffffffffffffffff1614610c77576040517f08c379a0000000000000000000000000000000000000000000000000000000008152600401610c6e90611910565b60405180910390fd5b60028460001c610c879190611e4c565b8360050181905550826005015483600401541415610d835760646002548460020154610cb39190611c10565b610cbd9190611bdf565b836003018190555060018360060160006101000a81548160ff02191690836002811115610ced57610cec611edb565b5b0217905550826003015460056000828254610d089190611c6a565b925050819055508260010160009054906101000a900473ffffffffffffffffffffffffffffffffffffffff1673ffffffffffffffffffffffffffffffffffffffff166108fc84600301549081150290604051600060405180830381858888f19350505050158015610d7d573d6000803e3d6000fd5b50610dbb565b6000836003018190555060028360060160006101000a81548160ff02191690836002811115610db557610db4611edb565b5b02179055505b868360010160009054906101000a900473ffffffffffffffffffffffffffffffffffffffff1673ffffffffffffffffffffffffffffffffffffffff167f66a277eae08be005534c699a6a8bb8d6130423996a074a37936859d78dab29b985600201548660030154876004015488600501548960060160009054906101000a900460ff16604051610e4f959493929190611ad1565b60405180910390a350505050505050565b3460035411158015610e7457506004543411155b610eb3576040517f08c379a0000000000000000000000000000000000000000000000000000000008152600401610eaa906118d0565b60405180910390fd5b806000600860008381526020019081526020016000206000015414610f0d576040517f08c379a0000000000000000000000000000000000000000000000000000000008152600401610f04906119d0565b60405180910390fd5b6000831480610f1c5750600183145b610f5b576040517f08c379a0000000000000000000000000000000000000000000000000000000008152600401610f5290611930565b60405180910390fd5b6000606460025434610f6d9190611c10565b610f779190611bdf565b9050478110610fbb576040517f08c379a0000000000000000000000000000000000000000000000000000000008152600401610fb2906119b0565b60405180910390fd5b600060086000858152602001908152602001600020905060016000815480929190610fe590611df9565b91905055506001548160000181905550338160010160006101000a81548173ffffffffffffffffffffffffffffffffffffffff021916908373ffffffffffffffffffffffffffffffffffffffff16021790555034816002018190555084816004018190555060008160060160006101000a81548160ff0219169083600281111561107257611071611edb565b5b021790555080600201546005600082825461108d9190611b4b565b9250508190555060098490806001815401808255809150506001900390600052602060002001600090919091909150558060010160009054906101000a900473ffffffffffffffffffffffffffffffffffffffff1673ffffffffffffffffffffffffffffffffffffffff167f0b67fb309cd70de956ad131734cbf3dcf23c78aa040b81ad1f7974defdfa511c826002015483600401548760405161113393929190611a9a565b60405180910390a25050505050565b61114a611375565b73ffffffffffffffffffffffffffffffffffffffff166111686108cd565b73ffffffffffffffffffffffffffffffffffffffff16146111be576040517f08c379a00000000000000000000000000000000000000000000000000000000081526004016111b590611970565b60405180910390fd5b600073ffffffffffffffffffffffffffffffffffffffff168173ffffffffffffffffffffffffffffffffffffffff16141561122e576040517f08c379a0000000000000000000000000000000000000000000000000000000008152600401611225906118f0565b60405180910390fd5b6112378161137d565b50565b60086020528060005260406000206000915090508060000154908060010160009054906101000a900473ffffffffffffffffffffffffffffffffffffffff16908060020154908060030154908060040154908060050154908060060160009054906101000a900460ff16905087565b60015481565b6112b7611375565b73ffffffffffffffffffffffffffffffffffffffff166112d56108cd565b73ffffffffffffffffffffffffffffffffffffffff161461132b576040517f08c379a000000000000000000000000000000000000000000000000000000000815260040161132290611970565b60405180910390fd5b80600660006101000a81548173ffffffffffffffffffffffffffffffffffffffff021916908373ffffffffffffffffffffffffffffffffffffffff16021790555050565b60025481565b600033905090565b60008060009054906101000a900473ffffffffffffffffffffffffffffffffffffffff169050816000806101000a81548173ffffffffffffffffffffffffffffffffffffffff021916908373ffffffffffffffffffffffffffffffffffffffff1602179055508173ffffffffffffffffffffffffffffffffffffffff168173ffffffffffffffffffffffffffffffffffffffff167f8be0079c531659141344cd1fd0a4f28419497f9722a3daafe3b4186f6b6457e060405160405180910390a35050565b6000813590506114508161217b565b92915050565b60008135905061146581612192565b92915050565b60008135905061147a816121a9565b92915050565b60008135905061148f816121c0565b92915050565b6000602082840312156114ab576114aa611f0a565b5b60006114b984828501611441565b91505092915050565b6000602082840312156114d8576114d7611f0a565b5b60006114e684828501611456565b91505092915050565b6000806000806080858703121561150957611508611f0a565b5b600061151787828801611456565b945050602061152887828801611480565b935050604061153987828801611456565b925050606061154a87828801611456565b91505092959194509250565b60006020828403121561156c5761156b611f0a565b5b600061157a8482850161146b565b91505092915050565b6000806040838503121561159a57611599611f0a565b5b60006115a88582860161146b565b92505060206115b985828601611456565b9150509250929050565b600080604083850312156115da576115d9611f0a565b5b60006115e88582860161146b565b92505060206115f98582860161146b565b9150509250929050565b61160c81611d44565b82525050565b61161b81611d32565b82525050565b61162a81611d56565b82525050565b61164161163c82611d56565b611e42565b82525050565b600061165282611b24565b61165c8185611b2f565b935061166c818560208601611dc6565b80840191505092915050565b61168181611db4565b82525050565b61169081611d73565b82525050565b60006116a3602383611b3a565b91506116ae82611f0f565b604082019050919050565b60006116c6602683611b3a565b91506116d182611f5e565b604082019050919050565b60006116e9601183611b3a565b91506116f482611fad565b602082019050919050565b600061170c601783611b3a565b915061171782611fd6565b602082019050919050565b600061172f601383611b3a565b915061173a82611fff565b602082019050919050565b6000611752602083611b3a565b915061175d82612028565b602082019050919050565b6000611775602883611b3a565b915061178082612051565b604082019050919050565b6000611798602e83611b3a565b91506117a3826120a0565b604082019050919050565b60006117bb601183611b3a565b91506117c6826120ef565b602082019050919050565b60006117de602c83611b3a565b91506117e982612118565b604082019050919050565b6117fd81611d9d565b82525050565b61180c81611da7565b82525050565b600061181e8285611647565b915061182a8284611630565b6020820191508190509392505050565b600060208201905061184f6000830184611612565b92915050565b600060208201905061186a6000830184611621565b92915050565b60006080820190506118856000830187611621565b6118926020830186611803565b61189f6040830185611621565b6118ac6060830184611621565b95945050505050565b60006020820190506118ca6000830184611687565b92915050565b600060208201905081810360008301526118e981611696565b9050919050565b60006020820190508181036000830152611909816116b9565b9050919050565b60006020820190508181036000830152611929816116dc565b9050919050565b60006020820190508181036000830152611949816116ff565b9050919050565b6000602082019050818103600083015261196981611722565b9050919050565b6000602082019050818103600083015261198981611745565b9050919050565b600060208201905081810360008301526119a981611768565b9050919050565b600060208201905081810360008301526119c98161178b565b9050919050565b600060208201905081810360008301526119e9816117ae565b9050919050565b60006020820190508181036000830152611a09816117d1565b9050919050565b6000602082019050611a2560008301846117f4565b92915050565b600060e082019050611a40600083018a6117f4565b611a4d6020830189611603565b611a5a60408301886117f4565b611a6760608301876117f4565b611a7460808301866117f4565b611a8160a08301856117f4565b611a8e60c0830184611678565b98975050505050505050565b6000606082019050611aaf60008301866117f4565b611abc60208301856117f4565b611ac96040830184611621565b949350505050565b600060a082019050611ae660008301886117f4565b611af360208301876117f4565b611b0060408301866117f4565b611b0d60608301856117f4565b611b1a6080830184611678565b9695505050505050565b600081519050919050565b600081905092915050565b600082825260208201905092915050565b6000611b5682611d73565b9150611b6183611d73565b9250817f7fffffffffffffffffffffffffffffffffffffffffffffffffffffffffffffff03831360008312151615611b9c57611b9b611e7d565b5b817f8000000000000000000000000000000000000000000000000000000000000000038312600083121615611bd457611bd3611e7d565b5b828201905092915050565b6000611bea82611d9d565b9150611bf583611d9d565b925082611c0557611c04611eac565b5b828204905092915050565b6000611c1b82611d9d565b9150611c2683611d9d565b9250817fffffffffffffffffffffffffffffffffffffffffffffffffffffffffffffffff0483118215151615611c5f57611c5e611e7d565b5b828202905092915050565b6000611c7582611d73565b9150611c8083611d73565b9250827f800000000000000000000000000000000000000000000000000000000000000001821260008412151615611cbb57611cba611e7d565b5b827f7fffffffffffffffffffffffffffffffffffffffffffffffffffffffffffffff018213600084121615611cf357611cf2611e7d565b5b828203905092915050565b6000611d0982611d9d565b9150611d1483611d9d565b925082821015611d2757611d26611e7d565b5b828203905092915050565b6000611d3d82611d7d565b9050919050565b6000611d4f82611d7d565b9050919050565b6000819050919050565b6000819050611d6e82612167565b919050565b6000819050919050565b600073ffffffffffffffffffffffffffffffffffffffff82169050919050565b6000819050919050565b600060ff82169050919050565b6000611dbf82611d60565b9050919050565b60005b83811015611de4578082015181840152602081019050611dc9565b83811115611df3576000848401525b50505050565b6000611e0482611d9d565b91507fffffffffffffffffffffffffffffffffffffffffffffffffffffffffffffffff821415611e3757611e36611e7d565b5b600182019050919050565b6000819050919050565b6000611e5782611d9d565b9150611e6283611d9d565b925082611e7257611e71611eac565b5b828206905092915050565b7f4e487b7100000000000000000000000000000000000000000000000000000000600052601160045260246000fd5b7f4e487b7100000000000000000000000000000000000000000000000000000000600052601260045260246000fd5b7f4e487b7100000000000000000000000000000000000000000000000000000000600052602160045260246000fd5b600080fd5b7f52617465206973206e6f74206265747765656e206d696e20616e64206d61782060008201527f6265740000000000000000000000000000000000000000000000000000000000602082015250565b7f4f776e61626c653a206e6577206f776e657220697320746865207a65726f206160008201527f6464726573730000000000000000000000000000000000000000000000000000602082015250565b7f496e76616c6964207369676e6174757265000000000000000000000000000000600082015250565b7f43686f6963652073686f756c642062652030206f722031000000000000000000600082015250565b7f47616d6520616c726561647920706c6179656400000000000000000000000000600082015250565b7f4f776e61626c653a2063616c6c6572206973206e6f7420746865206f776e6572600082015250565b7f4f6e6c79207468652063726f75706965722063616e2072756e2074686973206660008201527f756e6374696f6e2e000000000000000000000000000000000000000000000000602082015250565b7f496e737566666963656e742066756e6473206f6e20636f6e747261637420746f60008201527f20636f7665722074686520626574000000000000000000000000000000000000602082015250565b7f5365656420616c72656164792075736564000000000000000000000000000000600082015250565b7f4f6e6c79207468652070726f6669742074616b65722063616e2072756e20746860008201527f69732066756e6374696f6e2e0000000000000000000000000000000000000000602082015250565b6003811061217857612177611edb565b5b50565b61218481611d32565b811461218f57600080fd5b50565b61219b81611d56565b81146121a657600080fd5b50565b6121b281611d9d565b81146121bd57600080fd5b50565b6121c981611da7565b81146121d457600080fd5b5056fea2646970667358221220d628dab6a39dcb9fac4b602113a28c33ef3f874735786ebfc57f5050b7f04ad464736f6c63430008060033",
  "devdoc": {
    "kind": "dev",
    "methods": {
      "confirm(bytes32,uint8,bytes32,bytes32)": {
        "params": {
          "_seed": ": Uniqual value for each game"
        }
      },
      "owner()": {
        "details": "Returns the address of the current owner."
      },
      "play(uint256,bytes32)": {
        "params": {
          "_seed": ": Uniqual value for each game"
        }
      },
      "renounceOwnership()": {
        "details": "Leaves the contract without owner. It will not be possible to call `onlyOwner` functions anymore. Can only be called by the current owner. NOTE: Renouncing ownership will leave the contract without an owner, thereby removing any functionality that is only available to the owner."
      },
      "setBetRange(uint256,uint256)": {
        "params": {
          "_max": ": New maxEtherBet",
          "_min": ": New minEtherBet"
        }
      },
      "setCroupier(address)": {
        "params": {
          "_croupier": ": New croupier"
        }
      },
      "setProfitTaker(address)": {
        "params": {
          "_profitTaker": ": New profitTaker"
        }
      },
      "setWinCoefficient(uint256)": {
        "params": {
          "amount": ": New WIN_COEFFICIENT"
        }
      },
      "transferOwnership(address)": {
        "details": "Transfers ownership of the contract to a new account (`newOwner`). Can only be called by the current owner."
      }
    },
    "version": 1
  },
  "userdoc": {
    "kind": "user",
    "methods": {
      "WIN_COEFFICIENT()": {
        "notice": "Coefficient for win. x / 100"
      },
      "confirm(bytes32,uint8,bytes32,bytes32)": {
        "notice": "Confirm the game, with seed"
      },
      "croupier()": {
        "notice": "Croupier"
      },
      "games(bytes32)": {
        "notice": "Info of each game"
      },
      "houseProfitEther()": {
        "notice": "Profit from bets"
      },
      "listGames(uint256)": {
        "notice": "Games seeds"
      },
      "maxEtherBet()": {
        "notice": "Maximal amount for bet"
      },
      "minEtherBet()": {
        "notice": "Minimal amount for bet"
      },
      "play(uint256,bytes32)": {
        "notice": "Add new game"
      },
      "profitTaker()": {
        "notice": "Person how will receive houseProfitEther"
      },
      "setBetRange(uint256,uint256)": {
        "notice": "Set new minEtherBet and maxEtherBet"
      },
      "setCroupier(address)": {
        "notice": "Set new croupier"
      },
      "setProfitTaker(address)": {
        "notice": "Set new profitTaker"
      },
      "setWinCoefficient(uint256)": {
        "notice": "Set new WIN_COEFFICIENT"
      },
      "takeProfit()": {
        "notice": "sends houseProfitEther to profitTaker"
      },
      "totalGamesCount()": {
        "notice": "Number of all games"
      },
      "withdraw()": {
        "notice": "sends contract's excessive balance to owner"
      }
    },
    "version": 1
  },
  "storageLayout": {
    "storage": [
      {
        "astId": 7,
        "contract": "contracts/CoinFlip.sol:CoinFlip",
        "label": "_owner",
        "offset": 0,
        "slot": "0",
        "type": "t_address"
      },
      {
        "astId": 153,
        "contract": "contracts/CoinFlip.sol:CoinFlip",
        "label": "totalGamesCount",
        "offset": 0,
        "slot": "1",
        "type": "t_uint256"
      },
      {
        "astId": 157,
        "contract": "contracts/CoinFlip.sol:CoinFlip",
        "label": "WIN_COEFFICIENT",
        "offset": 0,
        "slot": "2",
        "type": "t_uint256"
      },
      {
        "astId": 161,
        "contract": "contracts/CoinFlip.sol:CoinFlip",
        "label": "minEtherBet",
        "offset": 0,
        "slot": "3",
        "type": "t_uint256"
      },
      {
        "astId": 165,
        "contract": "contracts/CoinFlip.sol:CoinFlip",
        "label": "maxEtherBet",
        "offset": 0,
        "slot": "4",
        "type": "t_uint256"
      },
      {
        "astId": 168,
        "contract": "contracts/CoinFlip.sol:CoinFlip",
        "label": "houseProfitEther",
        "offset": 0,
        "slot": "5",
        "type": "t_int256"
      },
      {
        "astId": 171,
        "contract": "contracts/CoinFlip.sol:CoinFlip",
        "label": "croupier",
        "offset": 0,
        "slot": "6",
        "type": "t_address"
      },
      {
        "astId": 174,
        "contract": "contracts/CoinFlip.sol:CoinFlip",
        "label": "profitTaker",
        "offset": 0,
        "slot": "7",
        "type": "t_address"
      },
      {
        "astId": 180,
        "contract": "contracts/CoinFlip.sol:CoinFlip",
        "label": "games",
        "offset": 0,
        "slot": "8",
        "type": "t_mapping(t_bytes32,t_struct(Game)146_storage)"
      },
      {
        "astId": 184,
        "contract": "contracts/CoinFlip.sol:CoinFlip",
        "label": "listGames",
        "offset": 0,
        "slot": "9",
        "type": "t_array(t_bytes32)dyn_storage"
      }
    ],
    "types": {
      "t_address": {
        "encoding": "inplace",
        "label": "address",
        "numberOfBytes": "20"
      },
      "t_address_payable": {
        "encoding": "inplace",
        "label": "address payable",
        "numberOfBytes": "20"
      },
      "t_array(t_bytes32)dyn_storage": {
        "base": "t_bytes32",
        "encoding": "dynamic_array",
        "label": "bytes32[]",
        "numberOfBytes": "32"
      },
      "t_bytes32": {
        "encoding": "inplace",
        "label": "bytes32",
        "numberOfBytes": "32"
      },
      "t_enum(GameState)150": {
        "encoding": "inplace",
        "label": "enum CoinFlip.GameState",
        "numberOfBytes": "1"
      },
      "t_int256": {
        "encoding": "inplace",
        "label": "int256",
        "numberOfBytes": "32"
      },
      "t_mapping(t_bytes32,t_struct(Game)146_storage)": {
        "encoding": "mapping",
        "key": "t_bytes32",
        "label": "mapping(bytes32 => struct CoinFlip.Game)",
        "numberOfBytes": "32",
        "value": "t_struct(Game)146_storage"
      },
      "t_struct(Game)146_storage": {
        "encoding": "inplace",
        "label": "struct CoinFlip.Game",
        "members": [
          {
            "astId": 132,
            "contract": "contracts/CoinFlip.sol:CoinFlip",
            "label": "id",
            "offset": 0,
            "slot": "0",
            "type": "t_uint256"
          },
          {
            "astId": 134,
            "contract": "contracts/CoinFlip.sol:CoinFlip",
            "label": "player",
            "offset": 0,
            "slot": "1",
            "type": "t_address_payable"
          },
          {
            "astId": 136,
            "contract": "contracts/CoinFlip.sol:CoinFlip",
            "label": "bet",
            "offset": 0,
            "slot": "2",
            "type": "t_uint256"
          },
          {
            "astId": 138,
            "contract": "contracts/CoinFlip.sol:CoinFlip",
            "label": "prize",
            "offset": 0,
            "slot": "3",
            "type": "t_uint256"
          },
          {
            "astId": 140,
            "contract": "contracts/CoinFlip.sol:CoinFlip",
            "label": "choice",
            "offset": 0,
            "slot": "4",
            "type": "t_uint256"
          },
          {
            "astId": 142,
            "contract": "contracts/CoinFlip.sol:CoinFlip",
            "label": "result",
            "offset": 0,
            "slot": "5",
            "type": "t_uint256"
          },
          {
            "astId": 145,
            "contract": "contracts/CoinFlip.sol:CoinFlip",
            "label": "state",
            "offset": 0,
            "slot": "6",
            "type": "t_enum(GameState)150"
          }
        ],
        "numberOfBytes": "224"
      },
      "t_uint256": {
        "encoding": "inplace",
        "label": "uint256",
        "numberOfBytes": "32"
      }
    }
  }
}